{
  "contractName": "HagiaCurations",
  "abi": [
    {
      "inputs": [],
      "stateMutability": "nonpayable",
      "type": "constructor"
    },
    {
      "anonymous": false,
      "inputs": [
        {
          "indexed": true,
          "internalType": "address",
          "name": "account",
          "type": "address"
        },
        {
          "indexed": true,
          "internalType": "address",
          "name": "operator",
          "type": "address"
        },
        {
          "indexed": false,
          "internalType": "bool",
          "name": "approved",
          "type": "bool"
        }
      ],
      "name": "ApprovalForAll",
      "type": "event"
    },
    {
      "anonymous": false,
      "inputs": [
        {
          "indexed": true,
          "internalType": "address",
          "name": "previousOwner",
          "type": "address"
        },
        {
          "indexed": true,
          "internalType": "address",
          "name": "newOwner",
          "type": "address"
        }
      ],
      "name": "OwnershipTransferred",
      "type": "event"
    },
    {
      "anonymous": false,
      "inputs": [
        {
          "indexed": true,
          "internalType": "address",
          "name": "operator",
          "type": "address"
        },
        {
          "indexed": true,
          "internalType": "address",
          "name": "from",
          "type": "address"
        },
        {
          "indexed": true,
          "internalType": "address",
          "name": "to",
          "type": "address"
        },
        {
          "indexed": false,
          "internalType": "uint256[]",
          "name": "ids",
          "type": "uint256[]"
        },
        {
          "indexed": false,
          "internalType": "uint256[]",
          "name": "values",
          "type": "uint256[]"
        }
      ],
      "name": "TransferBatch",
      "type": "event"
    },
    {
      "anonymous": false,
      "inputs": [
        {
          "indexed": true,
          "internalType": "address",
          "name": "operator",
          "type": "address"
        },
        {
          "indexed": true,
          "internalType": "address",
          "name": "from",
          "type": "address"
        },
        {
          "indexed": true,
          "internalType": "address",
          "name": "to",
          "type": "address"
        },
        {
          "indexed": false,
          "internalType": "uint256",
          "name": "id",
          "type": "uint256"
        },
        {
          "indexed": false,
          "internalType": "uint256",
          "name": "value",
          "type": "uint256"
        }
      ],
      "name": "TransferSingle",
      "type": "event"
    },
    {
      "anonymous": false,
      "inputs": [
        {
          "indexed": false,
          "internalType": "string",
          "name": "value",
          "type": "string"
        },
        {
          "indexed": true,
          "internalType": "uint256",
          "name": "id",
          "type": "uint256"
        }
      ],
      "name": "URI",
      "type": "event"
    },
    {
      "inputs": [
        {
          "internalType": "address",
          "name": "account",
          "type": "address"
        },
        {
          "internalType": "uint256",
          "name": "id",
          "type": "uint256"
        }
      ],
      "name": "balanceOf",
      "outputs": [
        {
          "internalType": "uint256",
          "name": "",
          "type": "uint256"
        }
      ],
      "stateMutability": "view",
      "type": "function",
      "constant": true
    },
    {
      "inputs": [
        {
          "internalType": "address[]",
          "name": "accounts",
          "type": "address[]"
        },
        {
          "internalType": "uint256[]",
          "name": "ids",
          "type": "uint256[]"
        }
      ],
      "name": "balanceOfBatch",
      "outputs": [
        {
          "internalType": "uint256[]",
          "name": "",
          "type": "uint256[]"
        }
      ],
      "stateMutability": "view",
      "type": "function",
      "constant": true
    },
    {
      "inputs": [
        {
          "internalType": "address",
          "name": "account",
          "type": "address"
        },
        {
          "internalType": "uint256",
          "name": "id",
          "type": "uint256"
        },
        {
          "internalType": "uint256",
          "name": "value",
          "type": "uint256"
        }
      ],
      "name": "burn",
      "outputs": [],
      "stateMutability": "nonpayable",
      "type": "function"
    },
    {
      "inputs": [
        {
          "internalType": "address",
          "name": "account",
          "type": "address"
        },
        {
          "internalType": "uint256[]",
          "name": "ids",
          "type": "uint256[]"
        },
        {
          "internalType": "uint256[]",
          "name": "values",
          "type": "uint256[]"
        }
      ],
      "name": "burnBatch",
      "outputs": [],
      "stateMutability": "nonpayable",
      "type": "function"
    },
    {
      "inputs": [],
      "name": "discountPrice",
      "outputs": [
        {
          "internalType": "uint256",
          "name": "",
          "type": "uint256"
        }
      ],
      "stateMutability": "view",
      "type": "function",
      "constant": true
    },
    {
      "inputs": [
        {
          "internalType": "uint256",
          "name": "id",
          "type": "uint256"
        }
      ],
      "name": "exists",
      "outputs": [
        {
          "internalType": "bool",
          "name": "",
          "type": "bool"
        }
      ],
      "stateMutability": "view",
      "type": "function",
      "constant": true
    },
    {
      "inputs": [
        {
          "internalType": "address",
          "name": "account",
          "type": "address"
        },
        {
          "internalType": "address",
          "name": "operator",
          "type": "address"
        }
      ],
      "name": "isApprovedForAll",
      "outputs": [
        {
          "internalType": "bool",
          "name": "",
          "type": "bool"
        }
      ],
      "stateMutability": "view",
      "type": "function",
      "constant": true
    },
    {
      "inputs": [],
      "name": "owner",
      "outputs": [
        {
          "internalType": "address",
          "name": "",
          "type": "address"
        }
      ],
      "stateMutability": "view",
      "type": "function",
      "constant": true
    },
    {
      "inputs": [],
      "name": "price",
      "outputs": [
        {
          "internalType": "uint256",
          "name": "",
          "type": "uint256"
        }
      ],
      "stateMutability": "view",
      "type": "function",
      "constant": true
    },
    {
      "inputs": [],
      "name": "renounceOwnership",
      "outputs": [],
      "stateMutability": "nonpayable",
      "type": "function"
    },
    {
      "inputs": [
        {
          "internalType": "address",
          "name": "from",
          "type": "address"
        },
        {
          "internalType": "address",
          "name": "to",
          "type": "address"
        },
        {
          "internalType": "uint256[]",
          "name": "ids",
          "type": "uint256[]"
        },
        {
          "internalType": "uint256[]",
          "name": "amounts",
          "type": "uint256[]"
        },
        {
          "internalType": "bytes",
          "name": "data",
          "type": "bytes"
        }
      ],
      "name": "safeBatchTransferFrom",
      "outputs": [],
      "stateMutability": "nonpayable",
      "type": "function"
    },
    {
      "inputs": [
        {
          "internalType": "address",
          "name": "from",
          "type": "address"
        },
        {
          "internalType": "address",
          "name": "to",
          "type": "address"
        },
        {
          "internalType": "uint256",
          "name": "id",
          "type": "uint256"
        },
        {
          "internalType": "uint256",
          "name": "amount",
          "type": "uint256"
        },
        {
          "internalType": "bytes",
          "name": "data",
          "type": "bytes"
        }
      ],
      "name": "safeTransferFrom",
      "outputs": [],
      "stateMutability": "nonpayable",
      "type": "function"
    },
    {
      "inputs": [
        {
          "internalType": "address",
          "name": "operator",
          "type": "address"
        },
        {
          "internalType": "bool",
          "name": "approved",
          "type": "bool"
        }
      ],
      "name": "setApprovalForAll",
      "outputs": [],
      "stateMutability": "nonpayable",
      "type": "function"
    },
    {
      "inputs": [
        {
          "internalType": "bytes4",
          "name": "interfaceId",
          "type": "bytes4"
        }
      ],
      "name": "supportsInterface",
      "outputs": [
        {
          "internalType": "bool",
          "name": "",
          "type": "bool"
        }
      ],
      "stateMutability": "view",
      "type": "function",
      "constant": true
    },
    {
      "inputs": [
        {
          "internalType": "uint256",
          "name": "id",
          "type": "uint256"
        }
      ],
      "name": "totalSupply",
      "outputs": [
        {
          "internalType": "uint256",
          "name": "",
          "type": "uint256"
        }
      ],
      "stateMutability": "view",
      "type": "function",
      "constant": true
    },
    {
      "inputs": [
        {
          "internalType": "address",
          "name": "newOwner",
          "type": "address"
        }
      ],
      "name": "transferOwnership",
      "outputs": [],
      "stateMutability": "nonpayable",
      "type": "function"
    },
    {
      "inputs": [],
      "name": "treasuryAddress",
      "outputs": [
        {
          "internalType": "address",
          "name": "",
          "type": "address"
        }
      ],
      "stateMutability": "view",
      "type": "function",
      "constant": true
    },
    {
      "inputs": [
        {
          "internalType": "uint256",
          "name": "_price",
          "type": "uint256"
        },
        {
          "internalType": "uint256",
          "name": "_discountPrice",
          "type": "uint256"
        }
      ],
      "name": "setPrice",
      "outputs": [],
      "stateMutability": "nonpayable",
      "type": "function"
    },
    {
      "inputs": [],
      "name": "getSaleStatus",
      "outputs": [
        {
          "internalType": "enum HagiaCurations.SaleStatus",
          "name": "",
          "type": "uint8"
        }
      ],
      "stateMutability": "view",
      "type": "function",
      "constant": true
    },
    {
      "inputs": [
        {
          "internalType": "uint256",
          "name": "_saleStatus",
          "type": "uint256"
        }
      ],
      "name": "setSaleStatus",
      "outputs": [],
      "stateMutability": "nonpayable",
      "type": "function"
    },
    {
      "inputs": [
        {
          "internalType": "uint256",
          "name": "_newId",
          "type": "uint256"
        },
        {
          "internalType": "string",
          "name": "_tokenUri",
          "type": "string"
        }
      ],
      "name": "setTokenId",
      "outputs": [],
      "stateMutability": "nonpayable",
      "type": "function"
    },
    {
      "inputs": [
        {
          "internalType": "address",
          "name": "_account",
          "type": "address"
        }
      ],
      "name": "getTotalBalanceOf",
      "outputs": [
        {
          "internalType": "uint256",
          "name": "",
          "type": "uint256"
        }
      ],
      "stateMutability": "view",
      "type": "function",
      "constant": true
    },
    {
      "inputs": [
        {
          "internalType": "uint256",
          "name": "_amount",
          "type": "uint256"
        }
      ],
      "name": "mint",
      "outputs": [],
      "stateMutability": "payable",
      "type": "function",
      "payable": true
    },
    {
      "inputs": [
        {
          "internalType": "address[]",
          "name": "_to",
          "type": "address[]"
        },
        {
          "internalType": "uint256",
          "name": "_id",
          "type": "uint256"
        },
        {
          "internalType": "uint256[]",
          "name": "_amount",
          "type": "uint256[]"
        }
      ],
      "name": "mintAdmin",
      "outputs": [],
      "stateMutability": "nonpayable",
      "type": "function"
    },
    {
      "inputs": [
        {
          "internalType": "uint256",
          "name": "tokenId",
          "type": "uint256"
        }
      ],
      "name": "uri",
      "outputs": [
        {
          "internalType": "string",
          "name": "",
          "type": "string"
        }
      ],
      "stateMutability": "view",
      "type": "function",
      "constant": true
    },
    {
      "inputs": [],
      "name": "withdraw",
      "outputs": [],
      "stateMutability": "nonpayable",
      "type": "function"
    }
  ],
  "bytecode": "0x60a06040819052600060808190526200001b91600391620000e3565b506006805460ff60a01b19169055666a94d74f430000600781905560085560016009553480156200004b57600080fd5b50604080516020810190915260008152620000668162000078565b50620000723362000091565b620001c5565b80516200008d906002906020840190620000e3565b5050565b600680546001600160a01b038381166001600160a01b0319831681179093556040519116919082907f8be0079c531659141344cd1fd0a4f28419497f9722a3daafe3b4186f6b6457e090600090a35050565b828054620000f19062000189565b90600052602060002090601f01602090048101928262000115576000855562000160565b82601f106200013057805160ff191683800117855562000160565b8280016001018555821562000160579182015b828111156200016057825182559160200191906001019062000143565b506200016e92915062000172565b5090565b5b808211156200016e576000815560010162000173565b600181811c908216806200019e57607f821691505b602082108103620001bf57634e487b7160e01b600052602260045260246000fd5b50919050565b6129f780620001d56000396000f3fe6080604052600436106101805760003560e01c8063a035b1fe116100d1578063e985e9c51161008a578063f2fde38b11610064578063f2fde38b146104ab578063f5298aca146104cb578063f7d97577146104eb578063fdfefa7f1461050b57600080fd5b8063e985e9c514610422578063f242432a1461046b578063f29f15af1461048b57600080fd5b8063a035b1fe1461036c578063a0712d6814610382578063a22cb46514610395578063bd85b039146103b5578063c5f956af146103e2578063cac9de731461040257600080fd5b80634e1273f41161013e578063715018a611610118578063715018a6146102e857806384ad8e8f146102fd5780638c3c4b34146103135780638da5cb5b1461033a57600080fd5b80634e1273f41461026c5780634f558e79146102995780636b20c454146102c857600080fd5b8062fdd58e1461018557806301ffc9a7146101b857806309c39128146101e85780630e89341c1461020a5780632eb2c2d6146102375780633ccfd60b14610257575b600080fd5b34801561019157600080fd5b506101a56101a0366004611d5b565b610541565b6040519081526020015b60405180910390f35b3480156101c457600080fd5b506101d86101d3366004611d9b565b6105d8565b60405190151581526020016101af565b3480156101f457600080fd5b50610208610203366004611db8565b61062a565b005b34801561021657600080fd5b5061022a610225366004611e34565b6106a2565b6040516101af9190611ea5565b34801561024357600080fd5b50610208610252366004612004565b6106ad565b34801561026357600080fd5b50610208610744565b34801561027857600080fd5b5061028c6102873660046120ae565b61085c565b6040516101af91906121b4565b3480156102a557600080fd5b506101d86102b4366004611e34565b600090815260056020526040902054151590565b3480156102d457600080fd5b506102086102e33660046121c7565b610986565b3480156102f457600080fd5b506102086109c9565b34801561030957600080fd5b506101a560085481565b34801561031f57600080fd5b50600654600160a01b900460ff166040516101af9190612251565b34801561034657600080fd5b506006546001600160a01b03165b6040516001600160a01b0390911681526020016101af565b34801561037857600080fd5b506101a560075481565b610208610390366004611e34565b6109ff565b3480156103a157600080fd5b506102086103b0366004612279565b610acc565b3480156103c157600080fd5b506101a56103d0366004611e34565b60009081526005602052604090205490565b3480156103ee57600080fd5b50600a54610354906001600160a01b031681565b34801561040e57600080fd5b5061020861041d366004612301565b610adb565b34801561042e57600080fd5b506101d861043d36600461237b565b6001600160a01b03918216600090815260016020908152604080832093909416825291909152205460ff1690565b34801561047757600080fd5b506102086104863660046123ae565b610bcb565b34801561049757600080fd5b506102086104a6366004611e34565b610c10565b3480156104b757600080fd5b506102086104c6366004612413565b610c76565b3480156104d757600080fd5b506102086104e636600461242e565b610d0e565b3480156104f757600080fd5b50610208610506366004612461565b610d51565b34801561051757600080fd5b506101a5610526366004612413565b6001600160a01b03166000908152600b602052604090205490565b60006001600160a01b0383166105b25760405162461bcd60e51b815260206004820152602b60248201527f455243313135353a2062616c616e636520717565727920666f7220746865207a60448201526a65726f206164647265737360a81b60648201526084015b60405180910390fd5b506000908152602081815260408083206001600160a01b03949094168352929052205490565b60006001600160e01b03198216636cdb3d1360e11b148061060957506001600160e01b031982166303a24d0760e21b145b8061062457506301ffc9a760e01b6001600160e01b03198316145b92915050565b6006546001600160a01b031633146106545760405162461bcd60e51b81526004016105a990612483565b8260098190555061069d60095483838080601f016020809104026020016040519081016040528093929190818152602001838380828437600092019190915250610d8692505050565b505050565b606061062482610dea565b6001600160a01b0385163314806106c957506106c9853361043d565b6107305760405162461bcd60e51b815260206004820152603260248201527f455243313135353a207472616e736665722063616c6c6572206973206e6f74206044820152711bdddb995c881b9bdc88185c1c1c9bdd995960721b60648201526084016105a9565b61073d8585858585610eca565b5050505050565b6006546001600160a01b0316331461076e5760405162461bcd60e51b81526004016105a990612483565b6002600654600160a01b900460ff16600281111561078e5761078e61223b565b146107db5760405162461bcd60e51b815260206004820152601a60248201527f43414e275420574954484452415720445552494e472053414c4500000000000060448201526064016105a9565b600047116108205760405162461bcd60e51b8152602060048201526012602482015271494e53554646494349454e542046554e445360701b60448201526064016105a9565b600a546040516001600160a01b03909116904780156108fc02916000818181858888f19350505050158015610859573d6000803e3d6000fd5b50565b606081518351146108c15760405162461bcd60e51b815260206004820152602960248201527f455243313135353a206163636f756e747320616e6420696473206c656e677468604482015268040dad2e6dac2e8c6d60bb1b60648201526084016105a9565b6000835167ffffffffffffffff8111156108dd576108dd611eb8565b604051908082528060200260200182016040528015610906578160200160208202803683370190505b50905060005b845181101561097e5761095185828151811061092a5761092a6124b8565b6020026020010151858381518110610944576109446124b8565b6020026020010151610541565b828281518110610963576109636124b8565b6020908102919091010152610977816124e4565b905061090c565b509392505050565b6001600160a01b0383163314806109a257506109a2833361043d565b6109be5760405162461bcd60e51b81526004016105a9906124fd565b61069d83838361107a565b6006546001600160a01b031633146109f35760405162461bcd60e51b81526004016105a990612483565b6109fd6000611226565b565b323314610a445760405162461bcd60e51b815260206004820152601360248201527213d3931648121553505394c810531313d5d151606a1b60448201526064016105a9565b610a4d33611278565b610a5957600754610a5d565b6008545b610a679082612546565b341015610aaf5760405162461bcd60e51b81526020600482015260166024820152751393d508115393d551d208115512115494c814d1539160521b60448201526064016105a9565b6108593360095483604051806020016040528060008152506112a6565b610ad73383836113d8565b5050565b6006546001600160a01b03163314610b055760405162461bcd60e51b81526004016105a990612483565b838114610b4d5760405162461bcd60e51b8152602060048201526016602482015275414d4f554e54204d555354204d41544348204441544160501b60448201526064016105a9565b60005b84811015610bc357610bb1868683818110610b6d57610b6d6124b8565b9050602002016020810190610b829190612413565b85858585818110610b9557610b956124b8565b90506020020135604051806020016040528060008152506112a6565b80610bbb816124e4565b915050610b50565b505050505050565b6001600160a01b038516331480610be75750610be7853361043d565b610c035760405162461bcd60e51b81526004016105a9906124fd565b61073d85858585856114b8565b6006546001600160a01b03163314610c3a5760405162461bcd60e51b81526004016105a990612483565b806002811115610c4c57610c4c61223b565b6006805460ff60a01b1916600160a01b836002811115610c6e57610c6e61223b565b021790555050565b6006546001600160a01b03163314610ca05760405162461bcd60e51b81526004016105a990612483565b6001600160a01b038116610d055760405162461bcd60e51b815260206004820152602660248201527f4f776e61626c653a206e6577206f776e657220697320746865207a65726f206160448201526564647265737360d01b60648201526084016105a9565b61085981611226565b6001600160a01b038316331480610d2a5750610d2a833361043d565b610d465760405162461bcd60e51b81526004016105a9906124fd565b61069d8383836115fe565b6006546001600160a01b03163314610d7b5760405162461bcd60e51b81526004016105a990612483565b600791909155600855565b60008281526004602090815260409091208251610da592840190611ca6565b50817f6bb7ff708619ba0610cba295a58592e0451dee2622938c8755667688daf3529b610dd1846106a2565b604051610dde9190611ea5565b60405180910390a25050565b600081815260046020526040812080546060929190610e0890612565565b80601f0160208091040260200160405190810160405280929190818152602001828054610e3490612565565b8015610e815780601f10610e5657610100808354040283529160200191610e81565b820191906000526020600020905b815481529060010190602001808311610e6457829003601f168201915b505050505090506000815111610e9f57610e9a83611720565b610ec3565b600381604051602001610eb39291906125bb565b6040516020818303038152906040525b9392505050565b8151835114610eeb5760405162461bcd60e51b81526004016105a990612661565b6001600160a01b038416610f115760405162461bcd60e51b81526004016105a9906126a9565b33610f208187878787876117b4565b60005b8451811015611006576000858281518110610f4057610f406124b8565b602002602001015190506000858381518110610f5e57610f5e6124b8565b602090810291909101810151600084815280835260408082206001600160a01b038e168352909352919091205490915081811015610fae5760405162461bcd60e51b81526004016105a9906126ee565b6000838152602081815260408083206001600160a01b038e8116855292528083208585039055908b16825281208054849290610feb908490612738565b9250508190555050505080610fff906124e4565b9050610f23565b50846001600160a01b0316866001600160a01b0316826001600160a01b03167f4a39dc06d4c0dbc64b70af90fd698a233a518aa5d07e595d983b8c0526c8f7fb8787604051611056929190612750565b60405180910390a461106c8187878787876117c2565b610bc38187878787876118cc565b6001600160a01b0383166110a05760405162461bcd60e51b81526004016105a990612775565b80518251146110c15760405162461bcd60e51b81526004016105a990612661565b60003390506110e4818560008686604051806020016040528060008152506117b4565b60005b83518110156111a9576000848281518110611104576111046124b8565b602002602001015190506000848381518110611122576111226124b8565b602090810291909101810151600084815280835260408082206001600160a01b038c1683529093529190912054909150818110156111725760405162461bcd60e51b81526004016105a9906127b8565b6000928352602083815260408085206001600160a01b038b16865290915290922091039055806111a1816124e4565b9150506110e7565b5060006001600160a01b0316846001600160a01b0316826001600160a01b03167f4a39dc06d4c0dbc64b70af90fd698a233a518aa5d07e595d983b8c0526c8f7fb86866040516111fa929190612750565b60405180910390a4611220818560008686604051806020016040528060008152506117c2565b50505050565b600680546001600160a01b038381166001600160a01b0319831681179093556040519116919082907f8be0079c531659141344cd1fd0a4f28419497f9722a3daafe3b4186f6b6457e090600090a35050565b6001600160a01b0381166000908152600b60205260408120541561129e57506001919050565b506000919050565b6001600160a01b0384166113065760405162461bcd60e51b815260206004820152602160248201527f455243313135353a206d696e7420746f20746865207a65726f206164647265736044820152607360f81b60648201526084016105a9565b33600061131285611a27565b9050600061131f85611a27565b9050611330836000898585896117b4565b6000868152602081815260408083206001600160a01b038b16845290915281208054879290611360908490612738565b909155505060408051878152602081018790526001600160a01b03808a1692600092918716917fc3d58168c5ae7397731d063d5bbf3d657854427343f4c083240f7aacaa2d0f62910160405180910390a46113c0836000898585896117c2565b6113cf83600089898989611a72565b50505050505050565b816001600160a01b0316836001600160a01b03160361144b5760405162461bcd60e51b815260206004820152602960248201527f455243313135353a2073657474696e6720617070726f76616c20737461747573604482015268103337b91039b2b63360b91b60648201526084016105a9565b6001600160a01b03838116600081815260016020908152604080832094871680845294825291829020805460ff191686151590811790915591519182527f17307eab39ab6107e8899845ad3d59bd9653f200f220920489ca2b5937696c31910160405180910390a3505050565b6001600160a01b0384166114de5760405162461bcd60e51b81526004016105a9906126a9565b3360006114ea85611a27565b905060006114f785611a27565b90506115078389898585896117b4565b6000868152602081815260408083206001600160a01b038c168452909152902054858110156115485760405162461bcd60e51b81526004016105a9906126ee565b6000878152602081815260408083206001600160a01b038d8116855292528083208985039055908a16825281208054889290611585908490612738565b909155505060408051888152602081018890526001600160a01b03808b16928c821692918816917fc3d58168c5ae7397731d063d5bbf3d657854427343f4c083240f7aacaa2d0f62910160405180910390a46115e5848a8a86868a6117c2565b6115f3848a8a8a8a8a611a72565b505050505050505050565b6001600160a01b0383166116245760405162461bcd60e51b81526004016105a990612775565b33600061163084611a27565b9050600061163d84611a27565b905061165d838760008585604051806020016040528060008152506117b4565b6000858152602081815260408083206001600160a01b038a1684529091529020548481101561169e5760405162461bcd60e51b81526004016105a9906127b8565b6000868152602081815260408083206001600160a01b038b81168086529184528285208a8703905582518b81529384018a90529092908816917fc3d58168c5ae7397731d063d5bbf3d657854427343f4c083240f7aacaa2d0f62910160405180910390a46113cf848860008686604051806020016040528060008152506117c2565b60606002805461172f90612565565b80601f016020809104026020016040519081016040528092919081815260200182805461175b90612565565b80156117a85780601f1061177d576101008083540402835291602001916117a8565b820191906000526020600020905b81548152906001019060200180831161178b57829003601f168201915b50505050509050919050565b610bc3868686868686611b2d565b60005b82518110156118c6576001600160a01b03861615611841578281815181106117ef576117ef6124b8565b6020026020010151600b6000886001600160a01b03166001600160a01b031681526020019081526020016000205461182791906127fc565b6001600160a01b0387166000908152600b60205260409020555b6001600160a01b038516156118b457828181518110611862576118626124b8565b6020026020010151600b6000876001600160a01b03166001600160a01b031681526020019081526020016000205461189a9190612738565b6001600160a01b0386166000908152600b60205260409020555b806118be816124e4565b9150506117c5565b50610bc3565b6001600160a01b0384163b15610bc35760405163bc197c8160e01b81526001600160a01b0385169063bc197c81906119109089908990889088908890600401612813565b6020604051808303816000875af192505050801561194b575060408051601f3d908101601f1916820190925261194891810190612871565b60015b6119f75761195761288e565b806308c379a003611990575061196b6128aa565b806119765750611992565b8060405162461bcd60e51b81526004016105a99190611ea5565b505b60405162461bcd60e51b815260206004820152603460248201527f455243313135353a207472616e7366657220746f206e6f6e20455243313135356044820152732932b1b2b4bb32b91034b6b83632b6b2b73a32b960611b60648201526084016105a9565b6001600160e01b0319811663bc197c8160e01b146113cf5760405162461bcd60e51b81526004016105a990612934565b60408051600180825281830190925260609160009190602080830190803683370190505090508281600081518110611a6157611a616124b8565b602090810291909101015292915050565b6001600160a01b0384163b15610bc35760405163f23a6e6160e01b81526001600160a01b0385169063f23a6e6190611ab6908990899088908890889060040161297c565b6020604051808303816000875af1925050508015611af1575060408051601f3d908101601f19168201909252611aee91810190612871565b60015b611afd5761195761288e565b6001600160e01b0319811663f23a6e6160e01b146113cf5760405162461bcd60e51b81526004016105a990612934565b6001600160a01b038516611bb45760005b8351811015611bb257828181518110611b5957611b596124b8565b602002602001015160056000868481518110611b7757611b776124b8565b602002602001015181526020019081526020016000206000828254611b9c9190612738565b90915550611bab9050816124e4565b9050611b3e565b505b6001600160a01b038416610bc35760005b83518110156113cf576000848281518110611be257611be26124b8565b602002602001015190506000848381518110611c0057611c006124b8565b6020026020010151905060006005600084815260200190815260200160002054905081811015611c835760405162461bcd60e51b815260206004820152602860248201527f455243313135353a206275726e20616d6f756e74206578636565647320746f74604482015267616c537570706c7960c01b60648201526084016105a9565b60009283526005602052604090922091039055611c9f816124e4565b9050611bc5565b828054611cb290612565565b90600052602060002090601f016020900481019282611cd45760008555611d1a565b82601f10611ced57805160ff1916838001178555611d1a565b82800160010185558215611d1a579182015b82811115611d1a578251825591602001919060010190611cff565b50611d26929150611d2a565b5090565b5b80821115611d265760008155600101611d2b565b80356001600160a01b0381168114611d5657600080fd5b919050565b60008060408385031215611d6e57600080fd5b611d7783611d3f565b946020939093013593505050565b6001600160e01b03198116811461085957600080fd5b600060208284031215611dad57600080fd5b8135610ec381611d85565b600080600060408486031215611dcd57600080fd5b83359250602084013567ffffffffffffffff80821115611dec57600080fd5b818601915086601f830112611e0057600080fd5b813581811115611e0f57600080fd5b876020828501011115611e2157600080fd5b6020830194508093505050509250925092565b600060208284031215611e4657600080fd5b5035919050565b60005b83811015611e68578181015183820152602001611e50565b838111156112205750506000910152565b60008151808452611e91816020860160208601611e4d565b601f01601f19169290920160200192915050565b602081526000610ec36020830184611e79565b634e487b7160e01b600052604160045260246000fd5b601f8201601f1916810167ffffffffffffffff81118282101715611ef457611ef4611eb8565b6040525050565b600067ffffffffffffffff821115611f1557611f15611eb8565b5060051b60200190565b600082601f830112611f3057600080fd5b81356020611f3d82611efb565b604051611f4a8282611ece565b83815260059390931b8501820192828101915086841115611f6a57600080fd5b8286015b84811015611f855780358352918301918301611f6e565b509695505050505050565b600082601f830112611fa157600080fd5b813567ffffffffffffffff811115611fbb57611fbb611eb8565b604051611fd2601f8301601f191660200182611ece565b818152846020838601011115611fe757600080fd5b816020850160208301376000918101602001919091529392505050565b600080600080600060a0868803121561201c57600080fd5b61202586611d3f565b945061203360208701611d3f565b9350604086013567ffffffffffffffff8082111561205057600080fd5b61205c89838a01611f1f565b9450606088013591508082111561207257600080fd5b61207e89838a01611f1f565b9350608088013591508082111561209457600080fd5b506120a188828901611f90565b9150509295509295909350565b600080604083850312156120c157600080fd5b823567ffffffffffffffff808211156120d957600080fd5b818501915085601f8301126120ed57600080fd5b813560206120fa82611efb565b6040516121078282611ece565b83815260059390931b850182019282810191508984111561212757600080fd5b948201945b8386101561214c5761213d86611d3f565b8252948201949082019061212c565b9650508601359250508082111561216257600080fd5b5061216f85828601611f1f565b9150509250929050565b600081518084526020808501945080840160005b838110156121a95781518752958201959082019060010161218d565b509495945050505050565b602081526000610ec36020830184612179565b6000806000606084860312156121dc57600080fd5b6121e584611d3f565b9250602084013567ffffffffffffffff8082111561220257600080fd5b61220e87838801611f1f565b9350604086013591508082111561222457600080fd5b5061223186828701611f1f565b9150509250925092565b634e487b7160e01b600052602160045260246000fd5b602081016003831061227357634e487b7160e01b600052602160045260246000fd5b91905290565b6000806040838503121561228c57600080fd5b61229583611d3f565b9150602083013580151581146122aa57600080fd5b809150509250929050565b60008083601f8401126122c757600080fd5b50813567ffffffffffffffff8111156122df57600080fd5b6020830191508360208260051b85010111156122fa57600080fd5b9250929050565b60008060008060006060868803121561231957600080fd5b853567ffffffffffffffff8082111561233157600080fd5b61233d89838a016122b5565b909750955060208801359450604088013591508082111561235d57600080fd5b5061236a888289016122b5565b969995985093965092949392505050565b6000806040838503121561238e57600080fd5b61239783611d3f565b91506123a560208401611d3f565b90509250929050565b600080600080600060a086880312156123c657600080fd5b6123cf86611d3f565b94506123dd60208701611d3f565b93506040860135925060608601359150608086013567ffffffffffffffff81111561240757600080fd5b6120a188828901611f90565b60006020828403121561242557600080fd5b610ec382611d3f565b60008060006060848603121561244357600080fd5b61244c84611d3f565b95602085013595506040909401359392505050565b6000806040838503121561247457600080fd5b50508035926020909101359150565b6020808252818101527f4f776e61626c653a2063616c6c6572206973206e6f7420746865206f776e6572604082015260600190565b634e487b7160e01b600052603260045260246000fd5b634e487b7160e01b600052601160045260246000fd5b6000600182016124f6576124f66124ce565b5060010190565b60208082526029908201527f455243313135353a2063616c6c6572206973206e6f74206f776e6572206e6f7260408201526808185c1c1c9bdd995960ba1b606082015260800190565b6000816000190483118215151615612560576125606124ce565b500290565b600181811c9082168061257957607f821691505b60208210810361259957634e487b7160e01b600052602260045260246000fd5b50919050565b600081516125b1818560208601611e4d565b9290920192915050565b600080845481600182811c9150808316806125d757607f831692505b602080841082036125f657634e487b7160e01b86526022600452602486fd5b81801561260a576001811461261b57612648565b60ff19861689528489019650612648565b60008b81526020902060005b868110156126405781548b820152908501908301612627565b505084890196505b505050505050612658818561259f565b95945050505050565b60208082526028908201527f455243313135353a2069647320616e6420616d6f756e7473206c656e677468206040820152670dad2e6dac2e8c6d60c31b606082015260800190565b60208082526025908201527f455243313135353a207472616e7366657220746f20746865207a65726f206164604082015264647265737360d81b606082015260800190565b6020808252602a908201527f455243313135353a20696e73756666696369656e742062616c616e636520666f60408201526939103a3930b739b332b960b11b606082015260800190565b6000821982111561274b5761274b6124ce565b500190565b6040815260006127636040830185612179565b82810360208401526126588185612179565b60208082526023908201527f455243313135353a206275726e2066726f6d20746865207a65726f206164647260408201526265737360e81b606082015260800190565b60208082526024908201527f455243313135353a206275726e20616d6f756e7420657863656564732062616c604082015263616e636560e01b606082015260800190565b60008282101561280e5761280e6124ce565b500390565b6001600160a01b0386811682528516602082015260a06040820181905260009061283f90830186612179565b82810360608401526128518186612179565b905082810360808401526128658185611e79565b98975050505050505050565b60006020828403121561288357600080fd5b8151610ec381611d85565b600060033d11156128a75760046000803e5060005160e01c5b90565b600060443d10156128b85790565b6040516003193d81016004833e81513d67ffffffffffffffff81602484011181841117156128e857505050505090565b82850191508151818111156129005750505050505090565b843d870101602082850101111561291a5750505050505090565b61292960208286010187611ece565b509095945050505050565b60208082526028908201527f455243313135353a204552433131353552656365697665722072656a656374656040820152676420746f6b656e7360c01b606082015260800190565b6001600160a01b03868116825285166020820152604081018490526060810183905260a0608082018190526000906129b690830184611e79565b97965050505050505056fea2646970667358221220fe050636190586a9cb162443efe0d88271d7abdbfffea73ad38a5e9f2fa28ecb64736f6c634300080d0033",
  "immutableReferences": {},
  "source": "// SPDX-License-Identifier: MIT\r\npragma solidity >=0.4.22 <0.9.0;\r\n\r\n// @creator: HAGIA\r\n// @title: Hagia Curations\r\n// @author: @devbhang - bhang\r\n// @author: @hazelrah_nft - hazelrah.eth\r\n\r\nimport \"@openzeppelin/contracts/token/ERC1155/extensions/ERC1155URIStorage.sol\";\r\nimport \"@openzeppelin/contracts/token/ERC1155/extensions/ERC1155Burnable.sol\";\r\nimport \"@openzeppelin/contracts/token/ERC1155/extensions/ERC1155Supply.sol\";\r\nimport \"@openzeppelin/contracts/access/Ownable.sol\";\r\n\r\ncontract HagiaCurations is ERC1155URIStorage, ERC1155Burnable, ERC1155Supply, Ownable {\r\n\t\r\n\tenum SaleStatus {\r\n\t\tNoSale,\r\n\t\tSaleOpen,\r\n\t\tSaleFinished\r\n\t}\r\n\t\r\n\tSaleStatus saleStatus = SaleStatus.NoSale;\r\n\t\r\n\tuint256 public price = 0.03 ether;\r\n\tuint256 public discountPrice = 0.03 ether;\r\n\t\r\n\tuint256 private _tokenId = 1;\r\n\t\r\n\taddress public treasuryAddress;\r\n\t\r\n\tmapping(address => uint256) internal _totalBalanceOf;\r\n\t\r\n\tconstructor() ERC1155(\"\") {}\r\n\t\r\n\tfunction setPrice(uint256 _price, uint256 _discountPrice) external onlyOwner {\r\n\t\tprice = _price;\r\n\t\tdiscountPrice = _discountPrice;\r\n\t}\r\n\t\r\n\tfunction getSaleStatus() external view returns (SaleStatus) {\r\n\t\treturn saleStatus;\r\n\t}\r\n\t\r\n\tfunction setSaleStatus(uint256 _saleStatus) external onlyOwner {\r\n\t\tsaleStatus = SaleStatus(_saleStatus);\r\n\t}\r\n\t\r\n\tfunction setTokenId(uint256 _newId, string calldata _tokenUri) external onlyOwner {\r\n\t\t_tokenId = _newId;\r\n\t\t_setURI(_tokenId, _tokenUri);\r\n\t}\r\n\t\r\n\tfunction getTotalBalanceOf(address _account) external view returns(uint256) {\r\n\t\treturn _totalBalanceOf[_account];\r\n\t}\r\n\t\r\n\tfunction _hasBalance(address _account) internal view returns(bool) {\r\n\t\tif (_totalBalanceOf[_account] > 0)\r\n\t\t\treturn true;\r\n\r\n\t\treturn false;\r\n\t}\r\n\t\r\n\tfunction mint(uint256 _amount) external payable {\r\n\t\trequire(tx.origin == msg.sender, \"ONLY HUMANS ALLOWED\");\r\n\t\trequire(msg.value >= _amount * (_hasBalance(msg.sender) ? discountPrice : price), \"NOT ENOUGH ETHERS SEND\");\r\n\t\t\r\n\t\t_mint(msg.sender, _tokenId, _amount, \"\");\r\n\t}\r\n\t\r\n\tfunction mintAdmin(address[] calldata _to, uint256 _id, uint256[] calldata _amount) external onlyOwner {\r\n\t\trequire(_to.length == _amount.length, \"AMOUNT MUST MATCH DATA\");\r\n\t\t\r\n\t\tfor (uint i; i < _to.length; i++) {\r\n\t\t\t_mint(_to[i], _id, _amount[i], \"\");\r\n\t\t}\r\n\t}\r\n\t\r\n\tfunction uri(uint256 tokenId) public view virtual override(ERC1155, ERC1155URIStorage) returns (string memory) {\r\n\t\treturn super.uri(tokenId);\r\n\t}\r\n\t\r\n\tfunction _beforeTokenTransfer(address operator, address from, address to, uint256[] memory ids, uint256[] memory amounts, bytes memory data)\r\n\tinternal\r\n\toverride(ERC1155, ERC1155Supply)\r\n\t{\r\n\t\tsuper._beforeTokenTransfer(operator, from, to, ids, amounts, data);\r\n\t}\r\n\t\r\n\tfunction _afterTokenTransfer(address operator, address from, address to, uint256[] memory ids, uint256[] memory amounts, bytes memory data)\r\n\tinternal\r\n\toverride(ERC1155)\r\n\t{\r\n\t\tfor (uint i; i < amounts.length; i++) {\r\n\t\t\tif (from != address(0))\r\n\t\t\t\t_totalBalanceOf[from] = _totalBalanceOf[from] - amounts[i];\r\n\t\t\t\r\n\t\t\tif (to != address(0))\r\n\t\t\t\t_totalBalanceOf[to] = _totalBalanceOf[to] + amounts[i];\r\n\t\t}\r\n\t\t\r\n\t\tsuper._afterTokenTransfer(operator, from, to, ids, amounts, data);\r\n\t}\r\n\t\r\n\tfunction withdraw() external onlyOwner {\r\n\t\trequire(saleStatus == SaleStatus.SaleFinished, \"CAN'T WITHDRAW DURING SALE\");\r\n\t\trequire(address(this).balance > 0, \"INSUFFICIENT FUNDS\");\r\n\t\t\r\n\t\tpayable(treasuryAddress).transfer(address(this).balance);\r\n\t}\r\n\t\r\n}",
  "sourcePath": "D:\\Projects\\hagia-contracts\\contracts\\HagiaCurations.sol",
  "compiler": {
    "name": "solc",
    "version": "0.8.13+commit.abaa5c0e.Emscripten.clang"
  },
  "schemaVersion": "3.4.7",
  "updatedAt": "2022-06-08T09:17:05.695Z",
  "networkType": "ethereum",
  "devdoc": {
    "kind": "dev",
    "methods": {
      "balanceOf(address,uint256)": {
        "details": "See {IERC1155-balanceOf}. Requirements: - `account` cannot be the zero address."
      },
      "balanceOfBatch(address[],uint256[])": {
        "details": "See {IERC1155-balanceOfBatch}. Requirements: - `accounts` and `ids` must have the same length."
      },
      "exists(uint256)": {
        "details": "Indicates whether any token exist with a given id, or not."
      },
      "isApprovedForAll(address,address)": {
        "details": "See {IERC1155-isApprovedForAll}."
      },
      "owner()": {
        "details": "Returns the address of the current owner."
      },
      "renounceOwnership()": {
        "details": "Leaves the contract without owner. It will not be possible to call `onlyOwner` functions anymore. Can only be called by the current owner. NOTE: Renouncing ownership will leave the contract without an owner, thereby removing any functionality that is only available to the owner."
      },
      "safeBatchTransferFrom(address,address,uint256[],uint256[],bytes)": {
        "details": "See {IERC1155-safeBatchTransferFrom}."
      },
      "safeTransferFrom(address,address,uint256,uint256,bytes)": {
        "details": "See {IERC1155-safeTransferFrom}."
      },
      "setApprovalForAll(address,bool)": {
        "details": "See {IERC1155-setApprovalForAll}."
      },
      "supportsInterface(bytes4)": {
        "details": "See {IERC165-supportsInterface}."
      },
      "totalSupply(uint256)": {
        "details": "Total amount of tokens in with a given id."
      },
      "transferOwnership(address)": {
        "details": "Transfers ownership of the contract to a new account (`newOwner`). Can only be called by the current owner."
      }
    },
    "version": 1
  },
  "userdoc": {
    "kind": "user",
    "methods": {},
    "version": 1
  }
}