{
  "contractName": "HagiaCurations",
  "abi": [
    {
      "inputs": [],
      "stateMutability": "nonpayable",
      "type": "constructor"
    },
    {
      "anonymous": false,
      "inputs": [
        {
          "indexed": true,
          "internalType": "address",
          "name": "account",
          "type": "address"
        },
        {
          "indexed": true,
          "internalType": "address",
          "name": "operator",
          "type": "address"
        },
        {
          "indexed": false,
          "internalType": "bool",
          "name": "approved",
          "type": "bool"
        }
      ],
      "name": "ApprovalForAll",
      "type": "event"
    },
    {
      "anonymous": false,
      "inputs": [
        {
          "indexed": true,
          "internalType": "address",
          "name": "previousOwner",
          "type": "address"
        },
        {
          "indexed": true,
          "internalType": "address",
          "name": "newOwner",
          "type": "address"
        }
      ],
      "name": "OwnershipTransferred",
      "type": "event"
    },
    {
      "anonymous": false,
      "inputs": [
        {
          "indexed": true,
          "internalType": "address",
          "name": "operator",
          "type": "address"
        },
        {
          "indexed": true,
          "internalType": "address",
          "name": "from",
          "type": "address"
        },
        {
          "indexed": true,
          "internalType": "address",
          "name": "to",
          "type": "address"
        },
        {
          "indexed": false,
          "internalType": "uint256[]",
          "name": "ids",
          "type": "uint256[]"
        },
        {
          "indexed": false,
          "internalType": "uint256[]",
          "name": "values",
          "type": "uint256[]"
        }
      ],
      "name": "TransferBatch",
      "type": "event"
    },
    {
      "anonymous": false,
      "inputs": [
        {
          "indexed": true,
          "internalType": "address",
          "name": "operator",
          "type": "address"
        },
        {
          "indexed": true,
          "internalType": "address",
          "name": "from",
          "type": "address"
        },
        {
          "indexed": true,
          "internalType": "address",
          "name": "to",
          "type": "address"
        },
        {
          "indexed": false,
          "internalType": "uint256",
          "name": "id",
          "type": "uint256"
        },
        {
          "indexed": false,
          "internalType": "uint256",
          "name": "value",
          "type": "uint256"
        }
      ],
      "name": "TransferSingle",
      "type": "event"
    },
    {
      "anonymous": false,
      "inputs": [
        {
          "indexed": false,
          "internalType": "string",
          "name": "value",
          "type": "string"
        },
        {
          "indexed": true,
          "internalType": "uint256",
          "name": "id",
          "type": "uint256"
        }
      ],
      "name": "URI",
      "type": "event"
    },
    {
      "inputs": [],
      "name": "MAX_MINT_PRIVATE",
      "outputs": [
        {
          "internalType": "uint256",
          "name": "",
          "type": "uint256"
        }
      ],
      "stateMutability": "view",
      "type": "function"
    },
    {
      "inputs": [],
      "name": "MAX_MINT_PUBLIC",
      "outputs": [
        {
          "internalType": "uint256",
          "name": "",
          "type": "uint256"
        }
      ],
      "stateMutability": "view",
      "type": "function"
    },
    {
      "inputs": [
        {
          "internalType": "address",
          "name": "account",
          "type": "address"
        },
        {
          "internalType": "uint256",
          "name": "id",
          "type": "uint256"
        }
      ],
      "name": "balanceOf",
      "outputs": [
        {
          "internalType": "uint256",
          "name": "",
          "type": "uint256"
        }
      ],
      "stateMutability": "view",
      "type": "function"
    },
    {
      "inputs": [
        {
          "internalType": "address[]",
          "name": "accounts",
          "type": "address[]"
        },
        {
          "internalType": "uint256[]",
          "name": "ids",
          "type": "uint256[]"
        }
      ],
      "name": "balanceOfBatch",
      "outputs": [
        {
          "internalType": "uint256[]",
          "name": "",
          "type": "uint256[]"
        }
      ],
      "stateMutability": "view",
      "type": "function"
    },
    {
      "inputs": [
        {
          "internalType": "address",
          "name": "account",
          "type": "address"
        },
        {
          "internalType": "uint256",
          "name": "id",
          "type": "uint256"
        },
        {
          "internalType": "uint256",
          "name": "value",
          "type": "uint256"
        }
      ],
      "name": "burn",
      "outputs": [],
      "stateMutability": "nonpayable",
      "type": "function"
    },
    {
      "inputs": [
        {
          "internalType": "address",
          "name": "account",
          "type": "address"
        },
        {
          "internalType": "uint256[]",
          "name": "ids",
          "type": "uint256[]"
        },
        {
          "internalType": "uint256[]",
          "name": "values",
          "type": "uint256[]"
        }
      ],
      "name": "burnBatch",
      "outputs": [],
      "stateMutability": "nonpayable",
      "type": "function"
    },
    {
      "inputs": [],
      "name": "discountPrice",
      "outputs": [
        {
          "internalType": "uint256",
          "name": "",
          "type": "uint256"
        }
      ],
      "stateMutability": "view",
      "type": "function"
    },
    {
      "inputs": [
        {
          "internalType": "uint256",
          "name": "id",
          "type": "uint256"
        }
      ],
      "name": "exists",
      "outputs": [
        {
          "internalType": "bool",
          "name": "",
          "type": "bool"
        }
      ],
      "stateMutability": "view",
      "type": "function"
    },
    {
      "inputs": [
        {
          "internalType": "address",
          "name": "account",
          "type": "address"
        },
        {
          "internalType": "address",
          "name": "operator",
          "type": "address"
        }
      ],
      "name": "isApprovedForAll",
      "outputs": [
        {
          "internalType": "bool",
          "name": "",
          "type": "bool"
        }
      ],
      "stateMutability": "view",
      "type": "function"
    },
    {
      "inputs": [],
      "name": "owner",
      "outputs": [
        {
          "internalType": "address",
          "name": "",
          "type": "address"
        }
      ],
      "stateMutability": "view",
      "type": "function"
    },
    {
      "inputs": [],
      "name": "price",
      "outputs": [
        {
          "internalType": "uint256",
          "name": "",
          "type": "uint256"
        }
      ],
      "stateMutability": "view",
      "type": "function"
    },
    {
      "inputs": [],
      "name": "renounceOwnership",
      "outputs": [],
      "stateMutability": "nonpayable",
      "type": "function"
    },
    {
      "inputs": [
        {
          "internalType": "address",
          "name": "from",
          "type": "address"
        },
        {
          "internalType": "address",
          "name": "to",
          "type": "address"
        },
        {
          "internalType": "uint256[]",
          "name": "ids",
          "type": "uint256[]"
        },
        {
          "internalType": "uint256[]",
          "name": "amounts",
          "type": "uint256[]"
        },
        {
          "internalType": "bytes",
          "name": "data",
          "type": "bytes"
        }
      ],
      "name": "safeBatchTransferFrom",
      "outputs": [],
      "stateMutability": "nonpayable",
      "type": "function"
    },
    {
      "inputs": [
        {
          "internalType": "address",
          "name": "from",
          "type": "address"
        },
        {
          "internalType": "address",
          "name": "to",
          "type": "address"
        },
        {
          "internalType": "uint256",
          "name": "id",
          "type": "uint256"
        },
        {
          "internalType": "uint256",
          "name": "amount",
          "type": "uint256"
        },
        {
          "internalType": "bytes",
          "name": "data",
          "type": "bytes"
        }
      ],
      "name": "safeTransferFrom",
      "outputs": [],
      "stateMutability": "nonpayable",
      "type": "function"
    },
    {
      "inputs": [
        {
          "internalType": "address",
          "name": "operator",
          "type": "address"
        },
        {
          "internalType": "bool",
          "name": "approved",
          "type": "bool"
        }
      ],
      "name": "setApprovalForAll",
      "outputs": [],
      "stateMutability": "nonpayable",
      "type": "function"
    },
    {
      "inputs": [
        {
          "internalType": "bytes4",
          "name": "interfaceId",
          "type": "bytes4"
        }
      ],
      "name": "supportsInterface",
      "outputs": [
        {
          "internalType": "bool",
          "name": "",
          "type": "bool"
        }
      ],
      "stateMutability": "view",
      "type": "function"
    },
    {
      "inputs": [
        {
          "internalType": "uint256",
          "name": "id",
          "type": "uint256"
        }
      ],
      "name": "totalSupply",
      "outputs": [
        {
          "internalType": "uint256",
          "name": "",
          "type": "uint256"
        }
      ],
      "stateMutability": "view",
      "type": "function"
    },
    {
      "inputs": [
        {
          "internalType": "address",
          "name": "newOwner",
          "type": "address"
        }
      ],
      "name": "transferOwnership",
      "outputs": [],
      "stateMutability": "nonpayable",
      "type": "function"
    },
    {
      "inputs": [],
      "name": "treasuryAddress",
      "outputs": [
        {
          "internalType": "address",
          "name": "",
          "type": "address"
        }
      ],
      "stateMutability": "view",
      "type": "function"
    },
    {
      "inputs": [
        {
          "internalType": "uint256",
          "name": "_price",
          "type": "uint256"
        },
        {
          "internalType": "uint256",
          "name": "_discountPrice",
          "type": "uint256"
        }
      ],
      "name": "setPrice",
      "outputs": [],
      "stateMutability": "nonpayable",
      "type": "function"
    },
    {
      "inputs": [],
      "name": "getSaleStatus",
      "outputs": [
        {
          "internalType": "enum HagiaCurations.SaleStatus",
          "name": "",
          "type": "uint8"
        }
      ],
      "stateMutability": "view",
      "type": "function"
    },
    {
      "inputs": [
        {
          "internalType": "uint256",
          "name": "_saleStatus",
          "type": "uint256"
        },
        {
          "internalType": "bytes32",
          "name": "_root",
          "type": "bytes32"
        }
      ],
      "name": "setSaleStatus",
      "outputs": [],
      "stateMutability": "nonpayable",
      "type": "function"
    },
    {
      "inputs": [
        {
          "internalType": "uint256",
          "name": "_newId",
          "type": "uint256"
        },
        {
          "internalType": "string",
          "name": "_tokenUri",
          "type": "string"
        }
      ],
      "name": "setToken",
      "outputs": [],
      "stateMutability": "nonpayable",
      "type": "function"
    },
    {
      "inputs": [
        {
          "internalType": "uint256",
          "name": "_amount",
          "type": "uint256"
        },
        {
          "internalType": "bytes32[]",
          "name": "_merkleProof",
          "type": "bytes32[]"
        }
      ],
      "name": "claimTokenPrivate",
      "outputs": [],
      "stateMutability": "payable",
      "type": "function"
    },
    {
      "inputs": [
        {
          "internalType": "uint256",
          "name": "_amount",
          "type": "uint256"
        }
      ],
      "name": "claimTokenPublic",
      "outputs": [],
      "stateMutability": "payable",
      "type": "function"
    },
    {
      "inputs": [
        {
          "internalType": "address[]",
          "name": "_to",
          "type": "address[]"
        },
        {
          "internalType": "uint256[]",
          "name": "_amount",
          "type": "uint256[]"
        }
      ],
      "name": "mintAdmin",
      "outputs": [],
      "stateMutability": "nonpayable",
      "type": "function"
    },
    {
      "inputs": [
        {
          "internalType": "uint256",
          "name": "tokenId",
          "type": "uint256"
        }
      ],
      "name": "uri",
      "outputs": [
        {
          "internalType": "string",
          "name": "",
          "type": "string"
        }
      ],
      "stateMutability": "view",
      "type": "function"
    },
    {
      "inputs": [],
      "name": "withdraw",
      "outputs": [],
      "stateMutability": "nonpayable",
      "type": "function"
    }
  ],
  "bytecode": "0x60a06040819052600060808190526200001b91600391620000de565b506006805460ff60a01b19169055666a94d74f43000060078190556008553480156200004657600080fd5b50604080516020810190915260008152620000618162000073565b506200006d336200008c565b620001c0565b805162000088906002906020840190620000de565b5050565b600680546001600160a01b038381166001600160a01b0319831681179093556040519116919082907f8be0079c531659141344cd1fd0a4f28419497f9722a3daafe3b4186f6b6457e090600090a35050565b828054620000ec9062000184565b90600052602060002090601f0160209004810192826200011057600085556200015b565b82601f106200012b57805160ff19168380011785556200015b565b828001600101855582156200015b579182015b828111156200015b5782518255916020019190600101906200013e565b50620001699291506200016d565b5090565b5b808211156200016957600081556001016200016e565b600181811c908216806200019957607f821691505b602082108103620001ba57634e487b7160e01b600052602260045260246000fd5b50919050565b612c5180620001d06000396000f3fe6080604052600436106101b65760003560e01c806384ad8e8f116100ec578063e985e9c51161008a578063f2fde38b11610064578063f2fde38b146104fe578063f5298aca1461051e578063f7d975771461053e578063fb7983ed1461055e57600080fd5b8063e985e9c514610475578063eb6e96e9146104be578063f242432a146104de57600080fd5b8063a035b1fe116100c6578063a035b1fe146103f2578063a22cb46514610408578063bd85b03914610428578063c5f956af1461045557600080fd5b806384ad8e8f146103835780638c3c4b34146103995780638da5cb5b146103c057600080fd5b80634e1273f4116101595780636131bdab116101335780636131bdab1461031957806363172ac1146103395780636b20c4541461034e578063715018a61461036e57600080fd5b80634e1273f4146102aa5780634f558e79146102d75780635772e15a1461030657600080fd5b80630e89341c116101955780630e89341c146102335780632eb2c2d6146102605780633301235c146102805780633ccfd60b1461029557600080fd5b8062fdd58e146101bb57806301ffc9a7146101ee578063089e24cd1461021e575b600080fd5b3480156101c757600080fd5b506101db6101d6366004611f9a565b61057e565b6040519081526020015b60405180910390f35b3480156101fa57600080fd5b5061020e610209366004611fda565b610615565b60405190151581526020016101e5565b61023161022c366004611ff7565b610667565b005b34801561023f57600080fd5b5061025361024e366004611ff7565b6106e5565b6040516101e59190612068565b34801561026c57600080fd5b5061023161027b3660046121c4565b6106f0565b34801561028c57600080fd5b506101db606581565b3480156102a157600080fd5b50610231610787565b3480156102b657600080fd5b506102ca6102c536600461226d565b61089c565b6040516101e59190612372565b3480156102e357600080fd5b5061020e6102f2366004611ff7565b600090815260056020526040902054151590565b6102316103143660046123d0565b6109c5565b34801561032557600080fd5b5061023161033436600461241b565b610b06565b34801561034557600080fd5b506101db600b81565b34801561035a57600080fd5b50610231610369366004612496565b610b77565b34801561037a57600080fd5b50610231610bba565b34801561038f57600080fd5b506101db60085481565b3480156103a557600080fd5b50600654600160a01b900460ff166040516101e5919061251f565b3480156103cc57600080fd5b506006546001600160a01b03165b6040516001600160a01b0390911681526020016101e5565b3480156103fe57600080fd5b506101db60075481565b34801561041457600080fd5b50610231610423366004612547565b610bf0565b34801561043457600080fd5b506101db610443366004611ff7565b60009081526005602052604090205490565b34801561046157600080fd5b506009546103da906001600160a01b031681565b34801561048157600080fd5b5061020e610490366004612583565b6001600160a01b03918216600090815260016020908152604080832093909416825291909152205460ff1690565b3480156104ca57600080fd5b506102316104d93660046125b6565b610bff565b3480156104ea57600080fd5b506102316104f9366004612621565b610d4f565b34801561050a57600080fd5b50610231610519366004612685565b610d94565b34801561052a57600080fd5b506102316105393660046126a0565b610e2c565b34801561054a57600080fd5b506102316105593660046126d3565b610e6f565b34801561056a57600080fd5b506102316105793660046126d3565b610ea4565b60006001600160a01b0383166105ef5760405162461bcd60e51b815260206004820152602b60248201527f455243313135353a2062616c616e636520717565727920666f7220746865207a60448201526a65726f206164647265737360a81b60648201526084015b60405180910390fd5b506000908152602081815260408083206001600160a01b03949094168352929052205490565b60006001600160e01b03198216636cdb3d1360e11b148061064657506001600160e01b031982166303a24d0760e21b145b8061066157506301ffc9a760e01b6001600160e01b03198316145b92915050565b6002600654600160a01b900460ff16600381111561068757610687612509565b146106d45760405162461bcd60e51b815260206004820152601760248201527f5055424c49432053414c45204953204e4f54204f50454e00000000000000000060448201526064016105e6565b6106e281600754600b610f0d565b50565b60606106618261106e565b6001600160a01b03851633148061070c575061070c8533610490565b6107735760405162461bcd60e51b815260206004820152603260248201527f455243313135353a207472616e736665722063616c6c6572206973206e6f74206044820152711bdddb995c881b9bdc88185c1c1c9bdd995960721b60648201526084016105e6565b610780858585858561114e565b5050505050565b6006546001600160a01b031633146107b15760405162461bcd60e51b81526004016105e6906126f5565b6003600654600160a01b900460ff1660038111156107d1576107d1612509565b1461081e5760405162461bcd60e51b815260206004820152601a60248201527f43414e275420574954484452415720445552494e472053414c4500000000000060448201526064016105e6565b600047116108635760405162461bcd60e51b8152602060048201526012602482015271494e53554646494349454e542046554e445360701b60448201526064016105e6565b6009546040516001600160a01b03909116904780156108fc02916000818181858888f193505050501580156106e2573d6000803e3d6000fd5b606081518351146109015760405162461bcd60e51b815260206004820152602960248201527f455243313135353a206163636f756e747320616e6420696473206c656e677468604482015268040dad2e6dac2e8c6d60bb1b60648201526084016105e6565b600083516001600160401b0381111561091c5761091c61207b565b604051908082528060200260200182016040528015610945578160200160208202803683370190505b50905060005b84518110156109bd576109908582815181106109695761096961272a565b60200260200101518583815181106109835761098361272a565b602002602001015161057e565b8282815181106109a2576109a261272a565b60209081029190910101526109b681612756565b905061094b565b509392505050565b6001600654600160a01b900460ff1660038111156109e5576109e5612509565b14610a325760405162461bcd60e51b815260206004820152601860248201527f505249564154452053414c45204953204e4f54204f50454e000000000000000060448201526064016105e6565b610aa782828080602002602001604051908101604052809392919081815260200183836020028082843760009201919091525050600b546040516bffffffffffffffffffffffff193360601b166020820152909250603401905060405160208183030381529060405280519060200120611306565b610af35760405162461bcd60e51b815260206004820152601760248201527f41444452455353204e4f542057484954454c495354454400000000000000000060448201526064016105e6565b610b01836008546065610f0d565b505050565b6006546001600160a01b03163314610b305760405162461bcd60e51b81526004016105e6906126f5565b82600a81905550610b018383838080601f01602080910402602001604051908101604052809392919081815260200183838082843760009201919091525061131c92505050565b6001600160a01b038316331480610b935750610b938333610490565b610baf5760405162461bcd60e51b81526004016105e69061276f565b610b01838383611380565b6006546001600160a01b03163314610be45760405162461bcd60e51b81526004016105e6906126f5565b610bee600061152c565b565b610bfb33838361157e565b5050565b6006546001600160a01b03163314610c295760405162461bcd60e51b81526004016105e6906126f5565b6003600654600160a01b900460ff166003811115610c4957610c49612509565b14610c8f5760405162461bcd60e51b815260206004820152601660248201527543414e2754204d494e5420445552494e472053414c4560501b60448201526064016105e6565b828114610cd75760405162461bcd60e51b8152602060048201526016602482015275414d4f554e54204d555354204d41544348204441544160501b60448201526064016105e6565b60005b8381101561078057610d3d858583818110610cf757610cf761272a565b9050602002016020810190610d0c9190612685565b600a54858585818110610d2157610d2161272a565b905060200201356040518060200160405280600081525061165e565b80610d4781612756565b915050610cda565b6001600160a01b038516331480610d6b5750610d6b8533610490565b610d875760405162461bcd60e51b81526004016105e69061276f565b6107808585858585611790565b6006546001600160a01b03163314610dbe5760405162461bcd60e51b81526004016105e6906126f5565b6001600160a01b038116610e235760405162461bcd60e51b815260206004820152602660248201527f4f776e61626c653a206e6577206f776e657220697320746865207a65726f206160448201526564647265737360d01b60648201526084016105e6565b6106e28161152c565b6001600160a01b038316331480610e485750610e488333610490565b610e645760405162461bcd60e51b81526004016105e69061276f565b610b018383836118d6565b6006546001600160a01b03163314610e995760405162461bcd60e51b81526004016105e6906126f5565b600791909155600855565b6006546001600160a01b03163314610ece5760405162461bcd60e51b81526004016105e6906126f5565b816003811115610ee057610ee0612509565b6006805460ff60a01b1916600160a01b836003811115610f0257610f02612509565b0217905550600b5550565b323314610f525760405162461bcd60e51b815260206004820152601360248201527213d3931648121553505394c810531313d5d151606a1b60448201526064016105e6565b600a546000908152600c602090815260408083203384529091529020548190610f7c9085906127b8565b10610fc95760405162461bcd60e51b815260206004820152601f60248201527f4d4158204d494e54205045522057414c4c45542049532045584345454445440060448201526064016105e6565b610fd383836127d0565b34101561101b5760405162461bcd60e51b81526020600482015260166024820152751393d508115393d551d208115512115494c814d1539160521b60448201526064016105e6565b61103833600a54856040518060200160405280600081525061165e565b600a546000908152600c60209081526040808320338452909152812080548592906110649084906127b8565b9091555050505050565b60008181526004602052604081208054606092919061108c906127ef565b80601f01602080910402602001604051908101604052809291908181526020018280546110b8906127ef565b80156111055780601f106110da57610100808354040283529160200191611105565b820191906000526020600020905b8154815290600101906020018083116110e857829003601f168201915b5050505050905060008151116111235761111e836119f8565b611147565b600381604051602001611137929190612845565b6040516020818303038152906040525b9392505050565b815183511461116f5760405162461bcd60e51b81526004016105e6906128eb565b6001600160a01b0384166111955760405162461bcd60e51b81526004016105e690612933565b336111a4818787878787611a8c565b60005b845181101561128a5760008582815181106111c4576111c461272a565b6020026020010151905060008583815181106111e2576111e261272a565b602090810291909101810151600084815280835260408082206001600160a01b038e1683529093529190912054909150818110156112325760405162461bcd60e51b81526004016105e690612978565b6000838152602081815260408083206001600160a01b038e8116855292528083208585039055908b1682528120805484929061126f9084906127b8565b925050819055505050508061128390612756565b90506111a7565b50846001600160a01b0316866001600160a01b0316826001600160a01b03167f4a39dc06d4c0dbc64b70af90fd698a233a518aa5d07e595d983b8c0526c8f7fb87876040516112da9291906129c2565b60405180910390a46112f0818787878787611a9a565b6112fe818787878787611a9f565b505050505050565b6000826113138584611bfa565b14949350505050565b6000828152600460209081526040909120825161133b92840190611ee5565b50817f6bb7ff708619ba0610cba295a58592e0451dee2622938c8755667688daf3529b611367846106e5565b6040516113749190612068565b60405180910390a25050565b6001600160a01b0383166113a65760405162461bcd60e51b81526004016105e6906129e7565b80518251146113c75760405162461bcd60e51b81526004016105e6906128eb565b60003390506113ea81856000868660405180602001604052806000815250611a8c565b60005b83518110156114af57600084828151811061140a5761140a61272a565b6020026020010151905060008483815181106114285761142861272a565b602090810291909101810151600084815280835260408082206001600160a01b038c1683529093529190912054909150818110156114785760405162461bcd60e51b81526004016105e690612a2a565b6000928352602083815260408085206001600160a01b038b16865290915290922091039055806114a781612756565b9150506113ed565b5060006001600160a01b0316846001600160a01b0316826001600160a01b03167f4a39dc06d4c0dbc64b70af90fd698a233a518aa5d07e595d983b8c0526c8f7fb86866040516115009291906129c2565b60405180910390a461152681856000868660405180602001604052806000815250611a9a565b50505050565b600680546001600160a01b038381166001600160a01b0319831681179093556040519116919082907f8be0079c531659141344cd1fd0a4f28419497f9722a3daafe3b4186f6b6457e090600090a35050565b816001600160a01b0316836001600160a01b0316036115f15760405162461bcd60e51b815260206004820152602960248201527f455243313135353a2073657474696e6720617070726f76616c20737461747573604482015268103337b91039b2b63360b91b60648201526084016105e6565b6001600160a01b03838116600081815260016020908152604080832094871680845294825291829020805460ff191686151590811790915591519182527f17307eab39ab6107e8899845ad3d59bd9653f200f220920489ca2b5937696c31910160405180910390a3505050565b6001600160a01b0384166116be5760405162461bcd60e51b815260206004820152602160248201527f455243313135353a206d696e7420746f20746865207a65726f206164647265736044820152607360f81b60648201526084016105e6565b3360006116ca85611c66565b905060006116d785611c66565b90506116e883600089858589611a8c565b6000868152602081815260408083206001600160a01b038b168452909152812080548792906117189084906127b8565b909155505060408051878152602081018790526001600160a01b03808a1692600092918716917fc3d58168c5ae7397731d063d5bbf3d657854427343f4c083240f7aacaa2d0f62910160405180910390a461177883600089858589611a9a565b61178783600089898989611cb1565b50505050505050565b6001600160a01b0384166117b65760405162461bcd60e51b81526004016105e690612933565b3360006117c285611c66565b905060006117cf85611c66565b90506117df838989858589611a8c565b6000868152602081815260408083206001600160a01b038c168452909152902054858110156118205760405162461bcd60e51b81526004016105e690612978565b6000878152602081815260408083206001600160a01b038d8116855292528083208985039055908a1682528120805488929061185d9084906127b8565b909155505060408051888152602081018890526001600160a01b03808b16928c821692918816917fc3d58168c5ae7397731d063d5bbf3d657854427343f4c083240f7aacaa2d0f62910160405180910390a46118bd848a8a86868a611a9a565b6118cb848a8a8a8a8a611cb1565b505050505050505050565b6001600160a01b0383166118fc5760405162461bcd60e51b81526004016105e6906129e7565b33600061190884611c66565b9050600061191584611c66565b905061193583876000858560405180602001604052806000815250611a8c565b6000858152602081815260408083206001600160a01b038a168452909152902054848110156119765760405162461bcd60e51b81526004016105e690612a2a565b6000868152602081815260408083206001600160a01b038b81168086529184528285208a8703905582518b81529384018a90529092908816917fc3d58168c5ae7397731d063d5bbf3d657854427343f4c083240f7aacaa2d0f62910160405180910390a461178784886000868660405180602001604052806000815250611a9a565b606060028054611a07906127ef565b80601f0160208091040260200160405190810160405280929190818152602001828054611a33906127ef565b8015611a805780601f10611a5557610100808354040283529160200191611a80565b820191906000526020600020905b815481529060010190602001808311611a6357829003601f168201915b50505050509050919050565b6112fe868686868686611d6c565b6112fe565b6001600160a01b0384163b156112fe5760405163bc197c8160e01b81526001600160a01b0385169063bc197c8190611ae39089908990889088908890600401612a6e565b6020604051808303816000875af1925050508015611b1e575060408051601f3d908101601f19168201909252611b1b91810190612acc565b60015b611bca57611b2a612ae9565b806308c379a003611b635750611b3e612b05565b80611b495750611b65565b8060405162461bcd60e51b81526004016105e69190612068565b505b60405162461bcd60e51b815260206004820152603460248201527f455243313135353a207472616e7366657220746f206e6f6e20455243313135356044820152732932b1b2b4bb32b91034b6b83632b6b2b73a32b960611b60648201526084016105e6565b6001600160e01b0319811663bc197c8160e01b146117875760405162461bcd60e51b81526004016105e690612b8e565b600081815b84518110156109bd576000858281518110611c1c57611c1c61272a565b60200260200101519050808311611c425760008381526020829052604090209250611c53565b600081815260208490526040902092505b5080611c5e81612756565b915050611bff565b60408051600180825281830190925260609160009190602080830190803683370190505090508281600081518110611ca057611ca061272a565b602090810291909101015292915050565b6001600160a01b0384163b156112fe5760405163f23a6e6160e01b81526001600160a01b0385169063f23a6e6190611cf59089908990889088908890600401612bd6565b6020604051808303816000875af1925050508015611d30575060408051601f3d908101601f19168201909252611d2d91810190612acc565b60015b611d3c57611b2a612ae9565b6001600160e01b0319811663f23a6e6160e01b146117875760405162461bcd60e51b81526004016105e690612b8e565b6001600160a01b038516611df35760005b8351811015611df157828181518110611d9857611d9861272a565b602002602001015160056000868481518110611db657611db661272a565b602002602001015181526020019081526020016000206000828254611ddb91906127b8565b90915550611dea905081612756565b9050611d7d565b505b6001600160a01b0384166112fe5760005b8351811015611787576000848281518110611e2157611e2161272a565b602002602001015190506000848381518110611e3f57611e3f61272a565b6020026020010151905060006005600084815260200190815260200160002054905081811015611ec25760405162461bcd60e51b815260206004820152602860248201527f455243313135353a206275726e20616d6f756e74206578636565647320746f74604482015267616c537570706c7960c01b60648201526084016105e6565b60009283526005602052604090922091039055611ede81612756565b9050611e04565b828054611ef1906127ef565b90600052602060002090601f016020900481019282611f135760008555611f59565b82601f10611f2c57805160ff1916838001178555611f59565b82800160010185558215611f59579182015b82811115611f59578251825591602001919060010190611f3e565b50611f65929150611f69565b5090565b5b80821115611f655760008155600101611f6a565b80356001600160a01b0381168114611f9557600080fd5b919050565b60008060408385031215611fad57600080fd5b611fb683611f7e565b946020939093013593505050565b6001600160e01b0319811681146106e257600080fd5b600060208284031215611fec57600080fd5b813561114781611fc4565b60006020828403121561200957600080fd5b5035919050565b60005b8381101561202b578181015183820152602001612013565b838111156115265750506000910152565b60008151808452612054816020860160208601612010565b601f01601f19169290920160200192915050565b602081526000611147602083018461203c565b634e487b7160e01b600052604160045260246000fd5b601f8201601f191681016001600160401b03811182821017156120b6576120b661207b565b6040525050565b60006001600160401b038211156120d6576120d661207b565b5060051b60200190565b600082601f8301126120f157600080fd5b813560206120fe826120bd565b60405161210b8282612091565b83815260059390931b850182019282810191508684111561212b57600080fd5b8286015b84811015612146578035835291830191830161212f565b509695505050505050565b600082601f83011261216257600080fd5b81356001600160401b0381111561217b5761217b61207b565b604051612192601f8301601f191660200182612091565b8181528460208386010111156121a757600080fd5b816020850160208301376000918101602001919091529392505050565b600080600080600060a086880312156121dc57600080fd5b6121e586611f7e565b94506121f360208701611f7e565b935060408601356001600160401b038082111561220f57600080fd5b61221b89838a016120e0565b9450606088013591508082111561223157600080fd5b61223d89838a016120e0565b9350608088013591508082111561225357600080fd5b5061226088828901612151565b9150509295509295909350565b6000806040838503121561228057600080fd5b82356001600160401b038082111561229757600080fd5b818501915085601f8301126122ab57600080fd5b813560206122b8826120bd565b6040516122c58282612091565b83815260059390931b85018201928281019150898411156122e557600080fd5b948201945b8386101561230a576122fb86611f7e565b825294820194908201906122ea565b9650508601359250508082111561232057600080fd5b5061232d858286016120e0565b9150509250929050565b600081518084526020808501945080840160005b838110156123675781518752958201959082019060010161234b565b509495945050505050565b6020815260006111476020830184612337565b60008083601f84011261239757600080fd5b5081356001600160401b038111156123ae57600080fd5b6020830191508360208260051b85010111156123c957600080fd5b9250929050565b6000806000604084860312156123e557600080fd5b8335925060208401356001600160401b0381111561240257600080fd5b61240e86828701612385565b9497909650939450505050565b60008060006040848603121561243057600080fd5b8335925060208401356001600160401b038082111561244e57600080fd5b818601915086601f83011261246257600080fd5b81358181111561247157600080fd5b87602082850101111561248357600080fd5b6020830194508093505050509250925092565b6000806000606084860312156124ab57600080fd5b6124b484611f7e565b925060208401356001600160401b03808211156124d057600080fd5b6124dc878388016120e0565b935060408601359150808211156124f257600080fd5b506124ff868287016120e0565b9150509250925092565b634e487b7160e01b600052602160045260246000fd5b602081016004831061254157634e487b7160e01b600052602160045260246000fd5b91905290565b6000806040838503121561255a57600080fd5b61256383611f7e565b91506020830135801515811461257857600080fd5b809150509250929050565b6000806040838503121561259657600080fd5b61259f83611f7e565b91506125ad60208401611f7e565b90509250929050565b600080600080604085870312156125cc57600080fd5b84356001600160401b03808211156125e357600080fd5b6125ef88838901612385565b9096509450602087013591508082111561260857600080fd5b5061261587828801612385565b95989497509550505050565b600080600080600060a0868803121561263957600080fd5b61264286611f7e565b945061265060208701611f7e565b9350604086013592506060860135915060808601356001600160401b0381111561267957600080fd5b61226088828901612151565b60006020828403121561269757600080fd5b61114782611f7e565b6000806000606084860312156126b557600080fd5b6126be84611f7e565b95602085013595506040909401359392505050565b600080604083850312156126e657600080fd5b50508035926020909101359150565b6020808252818101527f4f776e61626c653a2063616c6c6572206973206e6f7420746865206f776e6572604082015260600190565b634e487b7160e01b600052603260045260246000fd5b634e487b7160e01b600052601160045260246000fd5b60006001820161276857612768612740565b5060010190565b60208082526029908201527f455243313135353a2063616c6c6572206973206e6f74206f776e6572206e6f7260408201526808185c1c1c9bdd995960ba1b606082015260800190565b600082198211156127cb576127cb612740565b500190565b60008160001904831182151516156127ea576127ea612740565b500290565b600181811c9082168061280357607f821691505b60208210810361282357634e487b7160e01b600052602260045260246000fd5b50919050565b6000815161283b818560208601612010565b9290920192915050565b600080845481600182811c91508083168061286157607f831692505b6020808410820361288057634e487b7160e01b86526022600452602486fd5b81801561289457600181146128a5576128d2565b60ff198616895284890196506128d2565b60008b81526020902060005b868110156128ca5781548b8201529085019083016128b1565b505084890196505b5050505050506128e28185612829565b95945050505050565b60208082526028908201527f455243313135353a2069647320616e6420616d6f756e7473206c656e677468206040820152670dad2e6dac2e8c6d60c31b606082015260800190565b60208082526025908201527f455243313135353a207472616e7366657220746f20746865207a65726f206164604082015264647265737360d81b606082015260800190565b6020808252602a908201527f455243313135353a20696e73756666696369656e742062616c616e636520666f60408201526939103a3930b739b332b960b11b606082015260800190565b6040815260006129d56040830185612337565b82810360208401526128e28185612337565b60208082526023908201527f455243313135353a206275726e2066726f6d20746865207a65726f206164647260408201526265737360e81b606082015260800190565b60208082526024908201527f455243313135353a206275726e20616d6f756e7420657863656564732062616c604082015263616e636560e01b606082015260800190565b6001600160a01b0386811682528516602082015260a060408201819052600090612a9a90830186612337565b8281036060840152612aac8186612337565b90508281036080840152612ac0818561203c565b98975050505050505050565b600060208284031215612ade57600080fd5b815161114781611fc4565b600060033d1115612b025760046000803e5060005160e01c5b90565b600060443d1015612b135790565b6040516003193d81016004833e81513d6001600160401b038160248401118184111715612b4257505050505090565b8285019150815181811115612b5a5750505050505090565b843d8701016020828501011115612b745750505050505090565b612b8360208286010187612091565b509095945050505050565b60208082526028908201527f455243313135353a204552433131353552656365697665722072656a656374656040820152676420746f6b656e7360c01b606082015260800190565b6001600160a01b03868116825285166020820152604081018490526060810183905260a060808201819052600090612c109083018461203c565b97965050505050505056fea2646970667358221220015cd5ae663d9ab9b52c7b0d704ab785e0e0ef3b4a833b87b2721f92df61f8d564736f6c634300080d0033",
  "immutableReferences": {},
  "source": "// SPDX-License-Identifier: MIT\npragma solidity >=0.4.22 <0.9.0;\n\n// @creator: HAGIA\n// @title: Hagia Curations\n// @author: @devbhang - devbhang.eth\n// @author: @hazelrah_nft - hazelrah.eth\n\nimport \"@openzeppelin/contracts/token/ERC1155/extensions/ERC1155URIStorage.sol\";\nimport \"@openzeppelin/contracts/token/ERC1155/extensions/ERC1155Burnable.sol\";\nimport \"@openzeppelin/contracts/token/ERC1155/extensions/ERC1155Supply.sol\";\nimport \"@openzeppelin/contracts/access/Ownable.sol\";\nimport \"@openzeppelin/contracts/utils/cryptography/MerkleProof.sol\";\n\n////////////////////////////////////////////////////////////////////////////////////////////////////////////////////////////////////////////////////////\n//                                                                                                                                                    //\n//                                                                                                                                                    //\n////////////////////////////////////////////////////////////////////////////////////////////////////////////////////////////////////////////////////////\n\ncontract HagiaCurations is ERC1155URIStorage, ERC1155Burnable, ERC1155Supply, Ownable {\n\t\n\tenum SaleStatus {\n\t\tNoSale,\n\t\tPrivateSale,\n\t\tPublicSale,\n\t\tSaleFinished\n\t}\n\t\n\tSaleStatus saleStatus = SaleStatus.NoSale;\n\t\n\tuint256 public constant MAX_MINT_PRIVATE = 101;\n\tuint256 public constant MAX_MINT_PUBLIC = 11;\n\t\n\tuint256 public price = 0.03 ether;\n\tuint256 public discountPrice = 0.03 ether;\n\t\n\taddress public treasuryAddress;\n\t\n\tuint256 private _tokenId;\n\t\n\tbytes32 private _merkleRoot;\n\t\n\tmapping(uint256 => mapping(address => uint256)) private _addressMintCountById;\n\t\n\tconstructor() ERC1155(\"\") {}\n\t\n\tfunction setPrice(uint256 _price, uint256 _discountPrice) external onlyOwner {\n\t\tprice = _price;\n\t\tdiscountPrice = _discountPrice;\n\t}\n\t\n\tfunction getSaleStatus() public view returns (SaleStatus) {\n\t\treturn saleStatus;\n\t}\n\t\n\tfunction setSaleStatus(uint256 _saleStatus, bytes32 _root) external onlyOwner {\n\t\tsaleStatus = SaleStatus(_saleStatus);\n\t\t_merkleRoot = _root;\n\t}\n\t\n\tfunction setToken(uint256 _newId, string calldata _tokenUri) external onlyOwner {\n\t\t_tokenId = _newId;\n\t\t_setURI(_newId, _tokenUri);\n\t}\n\t\n\tfunction _claimToken(uint256 _amount, uint256 _price, uint256 _maxMint) internal virtual {\n\t\trequire(tx.origin == msg.sender, \"ONLY HUMANS ALLOWED\");\n\t\trequire(_addressMintCountById[_tokenId][msg.sender] + _amount < _maxMint, \"MAX MINT PER WALLET IS EXCEEDED\");\n\t\trequire(msg.value >= _price * _amount, \"NOT ENOUGH ETHERS SEND\");\n\t\t\n\t\t_mint(msg.sender, _tokenId, _amount, \"\");\n\t\t_addressMintCountById[_tokenId][msg.sender] += _amount;\n\t}\n\t\n\tfunction claimTokenPrivate(uint256 _amount, bytes32[] calldata _merkleProof) external payable {\n\t\trequire(saleStatus == SaleStatus.PrivateSale, \"PRIVATE SALE IS NOT OPEN\");\n\t\trequire(MerkleProof.verify(_merkleProof, _merkleRoot, keccak256(abi.encodePacked(msg.sender))), \"ADDRESS NOT WHITELISTED\");\n\t\t\n\t\t_claimToken(_amount, discountPrice, MAX_MINT_PRIVATE);\n\t}\n\t\n\tfunction claimTokenPublic(uint256 _amount) external payable {\n\t\trequire(saleStatus == SaleStatus.PublicSale, \"PUBLIC SALE IS NOT OPEN\");\n\t\t\n\t\t_claimToken(_amount, price, MAX_MINT_PUBLIC);\n\t}\n\t\n\tfunction mintAdmin(address[] calldata _to, uint256[] calldata _amount) external onlyOwner {\n\t\trequire(saleStatus == SaleStatus.SaleFinished, \"CAN'T MINT DURING SALE\");\n\t\trequire(_to.length == _amount.length, \"AMOUNT MUST MATCH DATA\");\n\t\t\n\t\tfor (uint i; i < _to.length; i++) {\n\t\t\t_mint(_to[i], _tokenId, _amount[i], \"\");\n\t\t}\n\t}\n\t\n\tfunction uri(uint256 tokenId) public view virtual override(ERC1155, ERC1155URIStorage) returns (string memory) {\n\t\treturn super.uri(tokenId);\n\t}\n\t\n\tfunction _beforeTokenTransfer(address operator, address from, address to, uint256[] memory ids, uint256[] memory amounts, bytes memory data)\n\tinternal\n\toverride(ERC1155, ERC1155Supply)\n\t{\n\t\tsuper._beforeTokenTransfer(operator, from, to, ids, amounts, data);\n\t}\n\t\n\tfunction _afterTokenTransfer(address operator, address from, address to, uint256[] memory ids, uint256[] memory amounts, bytes memory data)\n\tinternal\n\toverride(ERC1155)\n\t{\n\t\tsuper._afterTokenTransfer(operator, from, to, ids, amounts, data);\n\t}\n\t\n\tfunction withdraw() external onlyOwner {\n\t\trequire(saleStatus == SaleStatus.SaleFinished, \"CAN'T WITHDRAW DURING SALE\");\n\t\trequire(address(this).balance > 0, \"INSUFFICIENT FUNDS\");\n\t\t\n\t\tpayable(treasuryAddress).transfer(address(this).balance);\n\t}\n\t\n}",
  "sourcePath": "/Users/devbhang/Documents/Projects/hagia-contracts/contracts/HagiaCurations.sol",
  "compiler": {
    "name": "solc",
    "version": "0.8.13+commit.abaa5c0e.Emscripten.clang"
  },
  "schemaVersion": "3.4.10",
  "updatedAt": "2022-10-27T22:28:25.792Z",
  "networkType": "ethereum",
  "devdoc": {
    "kind": "dev",
    "methods": {
      "balanceOf(address,uint256)": {
        "details": "See {IERC1155-balanceOf}. Requirements: - `account` cannot be the zero address."
      },
      "balanceOfBatch(address[],uint256[])": {
        "details": "See {IERC1155-balanceOfBatch}. Requirements: - `accounts` and `ids` must have the same length."
      },
      "exists(uint256)": {
        "details": "Indicates whether any token exist with a given id, or not."
      },
      "isApprovedForAll(address,address)": {
        "details": "See {IERC1155-isApprovedForAll}."
      },
      "owner()": {
        "details": "Returns the address of the current owner."
      },
      "renounceOwnership()": {
        "details": "Leaves the contract without owner. It will not be possible to call `onlyOwner` functions anymore. Can only be called by the current owner. NOTE: Renouncing ownership will leave the contract without an owner, thereby removing any functionality that is only available to the owner."
      },
      "safeBatchTransferFrom(address,address,uint256[],uint256[],bytes)": {
        "details": "See {IERC1155-safeBatchTransferFrom}."
      },
      "safeTransferFrom(address,address,uint256,uint256,bytes)": {
        "details": "See {IERC1155-safeTransferFrom}."
      },
      "setApprovalForAll(address,bool)": {
        "details": "See {IERC1155-setApprovalForAll}."
      },
      "supportsInterface(bytes4)": {
        "details": "See {IERC165-supportsInterface}."
      },
      "totalSupply(uint256)": {
        "details": "Total amount of tokens in with a given id."
      },
      "transferOwnership(address)": {
        "details": "Transfers ownership of the contract to a new account (`newOwner`). Can only be called by the current owner."
      }
    },
    "version": 1
  },
  "userdoc": {
    "kind": "user",
    "methods": {},
    "version": 1
  }
}