{
  "contractName": "RaffleGraphy",
  "abi": [
    {
      "inputs": [],
      "stateMutability": "nonpayable",
      "type": "constructor"
    },
    {
      "inputs": [],
      "name": "ApprovalCallerNotOwnerNorApproved",
      "type": "error"
    },
    {
      "inputs": [],
      "name": "ApprovalQueryForNonexistentToken",
      "type": "error"
    },
    {
      "inputs": [],
      "name": "ApprovalToCurrentOwner",
      "type": "error"
    },
    {
      "inputs": [],
      "name": "ApproveToCaller",
      "type": "error"
    },
    {
      "inputs": [],
      "name": "BalanceQueryForZeroAddress",
      "type": "error"
    },
    {
      "inputs": [],
      "name": "InvalidQueryRange",
      "type": "error"
    },
    {
      "inputs": [],
      "name": "MintToZeroAddress",
      "type": "error"
    },
    {
      "inputs": [],
      "name": "MintZeroQuantity",
      "type": "error"
    },
    {
      "inputs": [],
      "name": "OwnerQueryForNonexistentToken",
      "type": "error"
    },
    {
      "inputs": [],
      "name": "TransferCallerNotOwnerNorApproved",
      "type": "error"
    },
    {
      "inputs": [],
      "name": "TransferFromIncorrectOwner",
      "type": "error"
    },
    {
      "inputs": [],
      "name": "TransferToNonERC721ReceiverImplementer",
      "type": "error"
    },
    {
      "inputs": [],
      "name": "TransferToZeroAddress",
      "type": "error"
    },
    {
      "inputs": [],
      "name": "URIQueryForNonexistentToken",
      "type": "error"
    },
    {
      "anonymous": false,
      "inputs": [
        {
          "indexed": true,
          "internalType": "address",
          "name": "owner",
          "type": "address"
        },
        {
          "indexed": true,
          "internalType": "address",
          "name": "approved",
          "type": "address"
        },
        {
          "indexed": true,
          "internalType": "uint256",
          "name": "tokenId",
          "type": "uint256"
        }
      ],
      "name": "Approval",
      "type": "event"
    },
    {
      "anonymous": false,
      "inputs": [
        {
          "indexed": true,
          "internalType": "address",
          "name": "owner",
          "type": "address"
        },
        {
          "indexed": true,
          "internalType": "address",
          "name": "operator",
          "type": "address"
        },
        {
          "indexed": false,
          "internalType": "bool",
          "name": "approved",
          "type": "bool"
        }
      ],
      "name": "ApprovalForAll",
      "type": "event"
    },
    {
      "anonymous": false,
      "inputs": [
        {
          "indexed": true,
          "internalType": "address",
          "name": "previousOwner",
          "type": "address"
        },
        {
          "indexed": true,
          "internalType": "address",
          "name": "newOwner",
          "type": "address"
        }
      ],
      "name": "OwnershipTransferred",
      "type": "event"
    },
    {
      "anonymous": false,
      "inputs": [
        {
          "indexed": true,
          "internalType": "address",
          "name": "from",
          "type": "address"
        },
        {
          "indexed": true,
          "internalType": "address",
          "name": "to",
          "type": "address"
        },
        {
          "indexed": true,
          "internalType": "uint256",
          "name": "tokenId",
          "type": "uint256"
        }
      ],
      "name": "Transfer",
      "type": "event"
    },
    {
      "inputs": [],
      "name": "MAX_MINT_PRE",
      "outputs": [
        {
          "internalType": "uint256",
          "name": "",
          "type": "uint256"
        }
      ],
      "stateMutability": "view",
      "type": "function",
      "constant": true
    },
    {
      "inputs": [],
      "name": "MAX_MINT_PUBLIC",
      "outputs": [
        {
          "internalType": "uint256",
          "name": "",
          "type": "uint256"
        }
      ],
      "stateMutability": "view",
      "type": "function",
      "constant": true
    },
    {
      "inputs": [
        {
          "internalType": "address",
          "name": "to",
          "type": "address"
        },
        {
          "internalType": "uint256",
          "name": "tokenId",
          "type": "uint256"
        }
      ],
      "name": "approve",
      "outputs": [],
      "stateMutability": "nonpayable",
      "type": "function"
    },
    {
      "inputs": [
        {
          "internalType": "address",
          "name": "owner",
          "type": "address"
        }
      ],
      "name": "balanceOf",
      "outputs": [
        {
          "internalType": "uint256",
          "name": "",
          "type": "uint256"
        }
      ],
      "stateMutability": "view",
      "type": "function",
      "constant": true
    },
    {
      "inputs": [],
      "name": "baseURI",
      "outputs": [
        {
          "internalType": "string",
          "name": "",
          "type": "string"
        }
      ],
      "stateMutability": "view",
      "type": "function",
      "constant": true
    },
    {
      "inputs": [
        {
          "internalType": "uint256",
          "name": "tokenId",
          "type": "uint256"
        }
      ],
      "name": "explicitOwnershipOf",
      "outputs": [
        {
          "components": [
            {
              "internalType": "address",
              "name": "addr",
              "type": "address"
            },
            {
              "internalType": "uint64",
              "name": "startTimestamp",
              "type": "uint64"
            },
            {
              "internalType": "bool",
              "name": "burned",
              "type": "bool"
            }
          ],
          "internalType": "struct IERC721A.TokenOwnership",
          "name": "",
          "type": "tuple"
        }
      ],
      "stateMutability": "view",
      "type": "function",
      "constant": true
    },
    {
      "inputs": [
        {
          "internalType": "uint256[]",
          "name": "tokenIds",
          "type": "uint256[]"
        }
      ],
      "name": "explicitOwnershipsOf",
      "outputs": [
        {
          "components": [
            {
              "internalType": "address",
              "name": "addr",
              "type": "address"
            },
            {
              "internalType": "uint64",
              "name": "startTimestamp",
              "type": "uint64"
            },
            {
              "internalType": "bool",
              "name": "burned",
              "type": "bool"
            }
          ],
          "internalType": "struct IERC721A.TokenOwnership[]",
          "name": "",
          "type": "tuple[]"
        }
      ],
      "stateMutability": "view",
      "type": "function",
      "constant": true
    },
    {
      "inputs": [
        {
          "internalType": "uint256",
          "name": "tokenId",
          "type": "uint256"
        }
      ],
      "name": "getApproved",
      "outputs": [
        {
          "internalType": "address",
          "name": "",
          "type": "address"
        }
      ],
      "stateMutability": "view",
      "type": "function",
      "constant": true
    },
    {
      "inputs": [
        {
          "internalType": "address",
          "name": "owner",
          "type": "address"
        },
        {
          "internalType": "address",
          "name": "operator",
          "type": "address"
        }
      ],
      "name": "isApprovedForAll",
      "outputs": [
        {
          "internalType": "bool",
          "name": "",
          "type": "bool"
        }
      ],
      "stateMutability": "view",
      "type": "function",
      "constant": true
    },
    {
      "inputs": [],
      "name": "maxSupply",
      "outputs": [
        {
          "internalType": "uint256",
          "name": "",
          "type": "uint256"
        }
      ],
      "stateMutability": "view",
      "type": "function",
      "constant": true
    },
    {
      "inputs": [],
      "name": "name",
      "outputs": [
        {
          "internalType": "string",
          "name": "",
          "type": "string"
        }
      ],
      "stateMutability": "view",
      "type": "function",
      "constant": true
    },
    {
      "inputs": [],
      "name": "owner",
      "outputs": [
        {
          "internalType": "address",
          "name": "",
          "type": "address"
        }
      ],
      "stateMutability": "view",
      "type": "function",
      "constant": true
    },
    {
      "inputs": [
        {
          "internalType": "uint256",
          "name": "tokenId",
          "type": "uint256"
        }
      ],
      "name": "ownerOf",
      "outputs": [
        {
          "internalType": "address",
          "name": "",
          "type": "address"
        }
      ],
      "stateMutability": "view",
      "type": "function",
      "constant": true
    },
    {
      "inputs": [],
      "name": "price",
      "outputs": [
        {
          "internalType": "uint256",
          "name": "",
          "type": "uint256"
        }
      ],
      "stateMutability": "view",
      "type": "function",
      "constant": true
    },
    {
      "inputs": [],
      "name": "renounceOwnership",
      "outputs": [],
      "stateMutability": "nonpayable",
      "type": "function"
    },
    {
      "inputs": [
        {
          "internalType": "uint256",
          "name": "_tokenId",
          "type": "uint256"
        },
        {
          "internalType": "uint256",
          "name": "_salePrice",
          "type": "uint256"
        }
      ],
      "name": "royaltyInfo",
      "outputs": [
        {
          "internalType": "address",
          "name": "",
          "type": "address"
        },
        {
          "internalType": "uint256",
          "name": "",
          "type": "uint256"
        }
      ],
      "stateMutability": "view",
      "type": "function",
      "constant": true
    },
    {
      "inputs": [
        {
          "internalType": "address",
          "name": "from",
          "type": "address"
        },
        {
          "internalType": "address",
          "name": "to",
          "type": "address"
        },
        {
          "internalType": "uint256",
          "name": "tokenId",
          "type": "uint256"
        }
      ],
      "name": "safeTransferFrom",
      "outputs": [],
      "stateMutability": "nonpayable",
      "type": "function"
    },
    {
      "inputs": [
        {
          "internalType": "address",
          "name": "from",
          "type": "address"
        },
        {
          "internalType": "address",
          "name": "to",
          "type": "address"
        },
        {
          "internalType": "uint256",
          "name": "tokenId",
          "type": "uint256"
        },
        {
          "internalType": "bytes",
          "name": "_data",
          "type": "bytes"
        }
      ],
      "name": "safeTransferFrom",
      "outputs": [],
      "stateMutability": "nonpayable",
      "type": "function"
    },
    {
      "inputs": [
        {
          "internalType": "address",
          "name": "operator",
          "type": "address"
        },
        {
          "internalType": "bool",
          "name": "approved",
          "type": "bool"
        }
      ],
      "name": "setApprovalForAll",
      "outputs": [],
      "stateMutability": "nonpayable",
      "type": "function"
    },
    {
      "inputs": [],
      "name": "symbol",
      "outputs": [
        {
          "internalType": "string",
          "name": "",
          "type": "string"
        }
      ],
      "stateMutability": "view",
      "type": "function",
      "constant": true
    },
    {
      "inputs": [
        {
          "internalType": "uint256",
          "name": "tokenId",
          "type": "uint256"
        }
      ],
      "name": "tokenURI",
      "outputs": [
        {
          "internalType": "string",
          "name": "",
          "type": "string"
        }
      ],
      "stateMutability": "view",
      "type": "function",
      "constant": true
    },
    {
      "inputs": [
        {
          "internalType": "address",
          "name": "owner",
          "type": "address"
        }
      ],
      "name": "tokensOfOwner",
      "outputs": [
        {
          "internalType": "uint256[]",
          "name": "",
          "type": "uint256[]"
        }
      ],
      "stateMutability": "view",
      "type": "function",
      "constant": true
    },
    {
      "inputs": [
        {
          "internalType": "address",
          "name": "owner",
          "type": "address"
        },
        {
          "internalType": "uint256",
          "name": "start",
          "type": "uint256"
        },
        {
          "internalType": "uint256",
          "name": "stop",
          "type": "uint256"
        }
      ],
      "name": "tokensOfOwnerIn",
      "outputs": [
        {
          "internalType": "uint256[]",
          "name": "",
          "type": "uint256[]"
        }
      ],
      "stateMutability": "view",
      "type": "function",
      "constant": true
    },
    {
      "inputs": [],
      "name": "totalSupply",
      "outputs": [
        {
          "internalType": "uint256",
          "name": "",
          "type": "uint256"
        }
      ],
      "stateMutability": "view",
      "type": "function",
      "constant": true
    },
    {
      "inputs": [
        {
          "internalType": "address",
          "name": "from",
          "type": "address"
        },
        {
          "internalType": "address",
          "name": "to",
          "type": "address"
        },
        {
          "internalType": "uint256",
          "name": "tokenId",
          "type": "uint256"
        }
      ],
      "name": "transferFrom",
      "outputs": [],
      "stateMutability": "nonpayable",
      "type": "function"
    },
    {
      "inputs": [
        {
          "internalType": "address",
          "name": "newOwner",
          "type": "address"
        }
      ],
      "name": "transferOwnership",
      "outputs": [],
      "stateMutability": "nonpayable",
      "type": "function"
    },
    {
      "inputs": [],
      "name": "treasuryAddress",
      "outputs": [
        {
          "internalType": "address",
          "name": "",
          "type": "address"
        }
      ],
      "stateMutability": "view",
      "type": "function",
      "constant": true
    },
    {
      "inputs": [
        {
          "internalType": "address",
          "name": "_address",
          "type": "address"
        },
        {
          "internalType": "uint96",
          "name": "_royalty",
          "type": "uint96"
        }
      ],
      "name": "setRoyalty",
      "outputs": [],
      "stateMutability": "nonpayable",
      "type": "function"
    },
    {
      "inputs": [
        {
          "internalType": "uint256",
          "name": "_price",
          "type": "uint256"
        }
      ],
      "name": "setPrice",
      "outputs": [],
      "stateMutability": "nonpayable",
      "type": "function"
    },
    {
      "inputs": [
        {
          "internalType": "uint256",
          "name": "_maxSupply",
          "type": "uint256"
        }
      ],
      "name": "editMaxSupply",
      "outputs": [],
      "stateMutability": "nonpayable",
      "type": "function"
    },
    {
      "inputs": [
        {
          "internalType": "string",
          "name": "_newBaseURI",
          "type": "string"
        }
      ],
      "name": "setBaseURI",
      "outputs": [],
      "stateMutability": "nonpayable",
      "type": "function"
    },
    {
      "inputs": [
        {
          "internalType": "bytes4",
          "name": "interfaceId",
          "type": "bytes4"
        }
      ],
      "name": "supportsInterface",
      "outputs": [
        {
          "internalType": "bool",
          "name": "",
          "type": "bool"
        }
      ],
      "stateMutability": "view",
      "type": "function",
      "constant": true
    },
    {
      "inputs": [],
      "name": "getSaleStatus",
      "outputs": [
        {
          "internalType": "enum RaffleGraphy.SaleStatus",
          "name": "",
          "type": "uint8"
        }
      ],
      "stateMutability": "view",
      "type": "function",
      "constant": true
    },
    {
      "inputs": [
        {
          "internalType": "uint256",
          "name": "_saleStatus",
          "type": "uint256"
        },
        {
          "internalType": "bytes32",
          "name": "_root",
          "type": "bytes32"
        }
      ],
      "name": "setSaleStatus",
      "outputs": [],
      "stateMutability": "nonpayable",
      "type": "function"
    },
    {
      "inputs": [
        {
          "internalType": "uint256",
          "name": "_amount",
          "type": "uint256"
        },
        {
          "internalType": "bytes32[]",
          "name": "_merkleProof",
          "type": "bytes32[]"
        }
      ],
      "name": "claimTokenPre",
      "outputs": [],
      "stateMutability": "payable",
      "type": "function",
      "payable": true
    },
    {
      "inputs": [
        {
          "internalType": "uint256",
          "name": "_amount",
          "type": "uint256"
        }
      ],
      "name": "claimTokenPublic",
      "outputs": [],
      "stateMutability": "payable",
      "type": "function",
      "payable": true
    },
    {
      "inputs": [
        {
          "internalType": "address[]",
          "name": "_to",
          "type": "address[]"
        },
        {
          "internalType": "uint256",
          "name": "_amount",
          "type": "uint256"
        }
      ],
      "name": "claimAdmin",
      "outputs": [],
      "stateMutability": "nonpayable",
      "type": "function"
    },
    {
      "inputs": [],
      "name": "withdraw",
      "outputs": [],
      "stateMutability": "nonpayable",
      "type": "function"
    },
    {
      "inputs": [
        {
          "internalType": "uint256",
          "name": "_tokenId",
          "type": "uint256"
        }
      ],
      "name": "burn",
      "outputs": [],
      "stateMutability": "nonpayable",
      "type": "function"
    }
  ],
  "bytecode": "0x6080604052600b805460ff1916905567016345785d8a0000600d556101f5600e553480156200002d57600080fd5b50604080518082018252600c81526b526166666c6547726170687960a01b60208083019182528351808501909452600884526752464c475250485960c01b908401528151919291620000829160029162000103565b5080516200009890600390602084019062000103565b5050600160005550620000ab33620000b1565b620001e5565b600880546001600160a01b038381166001600160a01b0319831681179093556040519116919082907f8be0079c531659141344cd1fd0a4f28419497f9722a3daafe3b4186f6b6457e090600090a35050565b8280546200011190620001a9565b90600052602060002090601f01602090048101928262000135576000855562000180565b82601f106200015057805160ff191683800117855562000180565b8280016001018555821562000180579182015b828111156200018057825182559160200191906001019062000163565b506200018e92915062000192565b5090565b5b808211156200018e576000815560010162000193565b600181811c90821680620001be57607f821691505b602082108103620001df57634e487b7160e01b600052602260045260246000fd5b50919050565b612beb80620001f56000396000f3fe6080604052600436106102305760003560e01c806370a082311161012e578063a035b1fe116100ab578063c87b56dd1161006f578063c87b56dd1461068b578063d5abeb01146106ab578063e985e9c5146106c1578063f2fde38b146106e1578063fb7983ed1461070157600080fd5b8063a035b1fe146105e8578063a22cb465146105fe578063b88d4fde1461061e578063c23dc68f1461063e578063c5f956af1461066b57600080fd5b80638da5cb5b116100f25780638da5cb5b146105555780638f2fc60b1461057357806391b7f5ed1461059357806395d89b41146105b357806399a2557a146105c857600080fd5b806370a08231146104be578063715018a6146104de5780638462151c146104f35780638a50b3ab146105205780638c3c4b341461053557600080fd5b80632a55205a116101bc57806355f804b31161018057806355f804b3146104275780635bbb21771461044757806363172ac1146104745780636352211e146104895780636c0360eb146104a957600080fd5b80632a55205a146103805780633ccfd60b146103bf57806342842e0e146103d457806342966c68146103f45780634ed979a01461041457600080fd5b8063095ea7b311610203578063095ea7b3146102d95780630cdd2b42146102f95780630e310d281461031957806318160ddd1461033957806323b872dd1461036057600080fd5b806301ffc9a71461023557806306fdde031461026a578063081812fc1461028c578063089e24cd146102c4575b600080fd5b34801561024157600080fd5b506102556102503660046123a8565b610721565b60405190151581526020015b60405180910390f35b34801561027657600080fd5b5061027f610732565b604051610261919061241d565b34801561029857600080fd5b506102ac6102a7366004612430565b6107c4565b6040516001600160a01b039091168152602001610261565b6102d76102d2366004612430565b610808565b005b3480156102e557600080fd5b506102d76102f4366004612465565b610881565b34801561030557600080fd5b506102d76103143660046124d3565b610907565b34801561032557600080fd5b506102d7610334366004612430565b6109ec565b34801561034557600080fd5b5060015460005403600019015b604051908152602001610261565b34801561036c57600080fd5b506102d761037b36600461251e565b610a7b565b34801561038c57600080fd5b506103a061039b36600461255a565b610a86565b604080516001600160a01b039093168352602083019190915201610261565b3480156103cb57600080fd5b506102d7610b34565b3480156103e057600080fd5b506102d76103ef36600461251e565b610c42565b34801561040057600080fd5b506102d761040f366004612430565b610c5d565b6102d761042236600461257c565b610cc7565b34801561043357600080fd5b506102d76104423660046125c7565b610df0565b34801561045357600080fd5b5061046761046236600461267e565b610e26565b6040516102619190612723565b34801561048057600080fd5b50610352603381565b34801561049557600080fd5b506102ac6104a4366004612430565b610eec565b3480156104b557600080fd5b5061027f610efe565b3480156104ca57600080fd5b506103526104d936600461278d565b610f8c565b3480156104ea57600080fd5b506102d7610fda565b3480156104ff57600080fd5b5061051361050e36600461278d565b611010565b60405161026191906127a8565b34801561052c57600080fd5b50610352600b81565b34801561054157600080fd5b50600b5460ff1660405161026191906127f6565b34801561056157600080fd5b506008546001600160a01b03166102ac565b34801561057f57600080fd5b506102d761058e36600461281e565b611155565b34801561059f57600080fd5b506102d76105ae366004612430565b6111a8565b3480156105bf57600080fd5b5061027f6111d7565b3480156105d457600080fd5b506105136105e3366004612861565b6111e6565b3480156105f457600080fd5b50610352600d5481565b34801561060a57600080fd5b506102d7610619366004612894565b6113a7565b34801561062a57600080fd5b506102d76106393660046128c5565b61143c565b34801561064a57600080fd5b5061065e610659366004612430565b611480565b6040516102619190612984565b34801561067757600080fd5b50600f546102ac906001600160a01b031681565b34801561069757600080fd5b5061027f6106a6366004612430565b61153a565b3480156106b757600080fd5b50610352600e5481565b3480156106cd57600080fd5b506102556106dc3660046129b9565b6115bd565b3480156106ed57600080fd5b506102d76106fc36600461278d565b6115eb565b34801561070d57600080fd5b506102d761071c36600461255a565b611683565b600061072c826116e6565b92915050565b606060028054610741906129ec565b80601f016020809104026020016040519081016040528092919081815260200182805461076d906129ec565b80156107ba5780601f1061078f576101008083540402835291602001916107ba565b820191906000526020600020905b81548152906001019060200180831161079d57829003601f168201915b5050505050905090565b60006107cf8261170b565b6107ec576040516333d1c03960e21b815260040160405180910390fd5b506000908152600660205260409020546001600160a01b031690565b6002600b5460ff166003811115610821576108216127e0565b146108735760405162461bcd60e51b815260206004820152601760248201527f5055424c49432053414c45204953204e4f54204f50454e00000000000000000060448201526064015b60405180910390fd5b61087e816033611744565b50565b600061088c82610eec565b9050806001600160a01b0316836001600160a01b0316036108c05760405163250fdee360e21b815260040160405180910390fd5b336001600160a01b038216146108f7576108da81336115bd565b6108f7576040516367d9dca160e11b815260040160405180910390fd5b610902838383611880565b505050565b6008546001600160a01b031633146109315760405162461bcd60e51b815260040161086a90612a26565b600e5461093e8383612a71565b60015460005403600019016109539190612a90565b106109995760405162461bcd60e51b81526020600482015260166024820152751350560814d554141316481254c8115610d15151115160521b604482015260640161086a565b60005b828110156109e6576109d48484838181106109b9576109b9612aa8565b90506020020160208101906109ce919061278d565b836118dc565b806109de81612abe565b91505061099c565b50505050565b6008546001600160a01b03163314610a165760405162461bcd60e51b815260040161086a90612a26565b600e548110610a765760405162461bcd60e51b815260206004820152602660248201527f4d415820535550504c592043414e27542045584345454420494e495449414c20604482015265535550504c5960d01b606482015260840161086a565b600e55565b610902838383611a09565b6000828152600a602090815260408083208151808301909252546001600160a01b038116808352600160a01b9091046001600160601b0316928201929092528291610afb5750604080518082019091526009546001600160a01b0381168252600160a01b90046001600160601b031660208201525b602081015160009061271090610b1a906001600160601b031687612a71565b610b249190612aed565b91519350909150505b9250929050565b6008546001600160a01b03163314610b5e5760405162461bcd60e51b815260040161086a90612a26565b6003600b5460ff166003811115610b7757610b776127e0565b14610bc45760405162461bcd60e51b815260206004820152601a60248201527f43414e275420574954484452415720445552494e472053414c45000000000000604482015260640161086a565b60004711610c095760405162461bcd60e51b8152602060048201526012602482015271494e53554646494349454e542046554e445360701b604482015260640161086a565b600f546040516001600160a01b03909116904780156108fc02916000818181858888f1935050505015801561087e573d6000803e3d6000fd5b6109028383836040518060200160405280600081525061143c565b6003600b5460ff166003811115610c7657610c766127e0565b14610cbc5760405162461bcd60e51b815260206004820152601660248201527543414e2754204255524e20445552494e472053414c4560501b604482015260640161086a565b61087e816001611bf6565b6001600b5460ff166003811115610ce057610ce06127e0565b14610d245760405162461bcd60e51b81526020600482015260146024820152732829229029a0a6229024a9902727aa1027a822a760611b604482015260640161086a565b610d99828280806020026020016040519081016040528093929190818152602001838360200280828437600092019190915250506010546040516bffffffffffffffffffffffff193360601b166020820152909250603401905060405160208183030381529060405280519060200120611dbb565b610de55760405162461bcd60e51b815260206004820152601760248201527f41444452455353204e4f542057484954454c4953544544000000000000000000604482015260640161086a565b61090283600b611744565b6008546001600160a01b03163314610e1a5760405162461bcd60e51b815260040161086a90612a26565b610902600c83836122f9565b80516060906000816001600160401b03811115610e4557610e45612638565b604051908082528060200260200182016040528015610e9057816020015b6040805160608101825260008082526020808301829052928201528252600019909201910181610e635790505b50905060005b828114610ee457610ebf858281518110610eb257610eb2612aa8565b6020026020010151611480565b828281518110610ed157610ed1612aa8565b6020908102919091010152600101610e96565b509392505050565b6000610ef782611dd1565b5192915050565b600c8054610f0b906129ec565b80601f0160208091040260200160405190810160405280929190818152602001828054610f37906129ec565b8015610f845780601f10610f5957610100808354040283529160200191610f84565b820191906000526020600020905b815481529060010190602001808311610f6757829003601f168201915b505050505081565b60006001600160a01b038216610fb5576040516323d3ad8160e21b815260040160405180910390fd5b506001600160a01b03166000908152600560205260409020546001600160401b031690565b6008546001600160a01b031633146110045760405162461bcd60e51b815260040161086a90612a26565b61100e6000611ef3565b565b6060600080600061102085610f8c565b90506000816001600160401b0381111561103c5761103c612638565b604051908082528060200260200182016040528015611065578160200160208202803683370190505b50905061108b604080516060810182526000808252602082018190529181019190915290565b60015b83861461114957600081815260046020908152604091829020825160608101845290546001600160a01b0381168252600160a01b81046001600160401b031692820192909252600160e01b90910460ff16151591810182905292506111415781516001600160a01b03161561110257815194505b876001600160a01b0316856001600160a01b031603611141578083878060010198508151811061113457611134612aa8565b6020026020010181815250505b60010161108e565b50909695505050505050565b6008546001600160a01b0316331461117f5760405162461bcd60e51b815260040161086a90612a26565b600f80546001600160a01b0319166001600160a01b0384161790556111a48282611f45565b5050565b6008546001600160a01b031633146111d25760405162461bcd60e51b815260040161086a90612a26565b600d55565b606060038054610741906129ec565b606081831061120857604051631960ccad60e11b815260040160405180910390fd5b60008054600185101561121a57600194505b80841115611226578093505b600061123187610f8c565b905084861015611250578585038181101561124a578091505b50611254565b5060005b6000816001600160401b0381111561126e5761126e612638565b604051908082528060200260200182016040528015611297578160200160208202803683370190505b509050816000036112ad5793506113a092505050565b60006112b888611480565b9050600081604001516112c9575080515b885b8881141580156112db5750848714155b1561139457600081815260046020908152604091829020825160608101845290546001600160a01b0381168252600160a01b81046001600160401b031692820192909252600160e01b90910460ff161515918101829052935061138c5782516001600160a01b03161561134d57825191505b8a6001600160a01b0316826001600160a01b03160361138c578084888060010199508151811061137f5761137f612aa8565b6020026020010181815250505b6001016112cb565b50505092835250909150505b9392505050565b336001600160a01b038316036113d05760405163b06307db60e01b815260040160405180910390fd5b3360008181526007602090815260408083206001600160a01b03871680855290835292819020805460ff191686151590811790915590519081529192917f17307eab39ab6107e8899845ad3d59bd9653f200f220920489ca2b5937696c31910160405180910390a35050565b611447848484611a09565b6001600160a01b0383163b156109e65761146384848484612042565b6109e6576040516368d2bf6b60e11b815260040160405180910390fd5b604080516060808201835260008083526020808401829052838501829052845192830185528183528201819052928101929092529060018310806114c657506000548310155b156114d15792915050565b50600082815260046020908152604091829020825160608101845290546001600160a01b0381168252600160a01b81046001600160401b031692820192909252600160e01b90910460ff1615801592820192909252906115315792915050565b6113a083611dd1565b60606115458261170b565b61156257604051630a14c4b560e41b815260040160405180910390fd5b600061156c61212e565b9050805160000361158c57604051806020016040528060008152506113a0565b806115968461213d565b6040516020016115a7929190612b01565b6040516020818303038152906040529392505050565b6001600160a01b03918216600090815260076020908152604080832093909416825291909152205460ff1690565b6008546001600160a01b031633146116155760405162461bcd60e51b815260040161086a90612a26565b6001600160a01b03811661167a5760405162461bcd60e51b815260206004820152602660248201527f4f776e61626c653a206e6577206f776e657220697320746865207a65726f206160448201526564647265737360d01b606482015260840161086a565b61087e81611ef3565b6008546001600160a01b031633146116ad5760405162461bcd60e51b815260040161086a90612a26565b8160038111156116bf576116bf6127e0565b600b805460ff191660018360038111156116db576116db6127e0565b021790555060105550565b60006001600160e01b0319821663152a902d60e11b148061072c575061072c8261223d565b60008160011115801561171f575060005482105b801561072c575050600090815260046020526040902054600160e01b900460ff161590565b3360009081526005602052604090205481908390600160401b90046001600160401b03166117729190612a90565b106117bf5760405162461bcd60e51b815260206004820152601f60248201527f4d4158204d494e54205045522057414c4c455420495320455843454544454400604482015260640161086a565b600e5460015460005484919003600019016117da9190612a90565b106118205760405162461bcd60e51b81526020600482015260166024820152751350560814d554141316481254c8115610d15151115160521b604482015260640161086a565b81600d5461182e9190612a71565b3410156118765760405162461bcd60e51b81526020600482015260166024820152751393d508115393d551d208115512115494c814d1539160521b604482015260640161086a565b6111a433836118dc565b60008281526006602052604080822080546001600160a01b0319166001600160a01b0387811691821790925591518593918516917f8c5be1e5ebec7d5bd14f71427d1e84f3dd0314c0f7b2291e5b200ac8c7c3b92591a4505050565b6000546001600160a01b03831661190557604051622e076360e81b815260040160405180910390fd5b816000036119265760405163b562e8dd60e01b815260040160405180910390fd5b6001600160a01b038316600081815260056020908152604080832080546fffffffffffffffffffffffffffffffff1981166001600160401b038083168a018116918217600160401b67ffffffffffffffff1990941690921783900481168a01811690920217909155858452600490925290912080546001600160e01b031916909217600160a01b4290921691909102179055808083015b6040516001830192906001600160a01b038716906000907fddf252ad1be2c89b69c2b068fc378daa952ba7f163c4a11628f55a4df523b3ef908290a48082106119bd5750600055505050565b6000611a1482611dd1565b9050836001600160a01b031681600001516001600160a01b031614611a4b5760405162a1148160e81b815260040160405180910390fd5b6000336001600160a01b0386161480611a695750611a6985336115bd565b80611a84575033611a79846107c4565b6001600160a01b0316145b905080611aa457604051632ce44b5f60e11b815260040160405180910390fd5b6001600160a01b038416611acb57604051633a954ecd60e21b815260040160405180910390fd5b611ad760008487611880565b6001600160a01b038581166000908152600560209081526040808320805467ffffffffffffffff198082166001600160401b0392831660001901831617909255898616808652838620805493841693831660019081018416949094179055898652600490945282852080546001600160e01b031916909417600160a01b42909216919091021783558701808452922080549193909116611bab576000548214611bab57805460208601516001600160401b0316600160a01b026001600160e01b03199091166001600160a01b038a16171781555b50505082846001600160a01b0316866001600160a01b03167fddf252ad1be2c89b69c2b068fc378daa952ba7f163c4a11628f55a4df523b3ef60405160405180910390a45050505050565b6000611c0183611dd1565b80519091508215611c67576000336001600160a01b0383161480611c2a5750611c2a82336115bd565b80611c45575033611c3a866107c4565b6001600160a01b0316145b905080611c6557604051632ce44b5f60e11b815260040160405180910390fd5b505b611c7360008583611880565b6001600160a01b0380821660008181526005602090815260408083208054600160801b6000196001600160401b0380841691909101811667ffffffffffffffff198416811783900482166001908101831690930277ffffffffffffffff0000000000000000ffffffffffffffff19909416179290921783558b86526004909452828520805460ff60e01b1942909316600160a01b026001600160e01b03199091169097179690961716600160e01b178555918901808452922080549194909116611d71576000548214611d7157805460208701516001600160401b0316600160a01b026001600160e01b03199091166001600160a01b038716171781555b5050604051869250600091506001600160a01b038416907fddf252ad1be2c89b69c2b068fc378daa952ba7f163c4a11628f55a4df523b3ef908390a4505060018054810190555050565b600082611dc8858461228d565b14949350505050565b60408051606081018252600080825260208201819052918101919091528180600111611eda57600054811015611eda57600081815260046020908152604091829020825160608101845290546001600160a01b0381168252600160a01b81046001600160401b031692820192909252600160e01b90910460ff16151591810182905290611ed85780516001600160a01b031615611e6f579392505050565b5060001901600081815260046020908152604091829020825160608101845290546001600160a01b038116808352600160a01b82046001600160401b031693830193909352600160e01b900460ff1615159281019290925215611ed3579392505050565b611e6f565b505b604051636f96cda160e11b815260040160405180910390fd5b600880546001600160a01b038381166001600160a01b0319831681179093556040519116919082907f8be0079c531659141344cd1fd0a4f28419497f9722a3daafe3b4186f6b6457e090600090a35050565b6127106001600160601b0382161115611fb35760405162461bcd60e51b815260206004820152602a60248201527f455243323938313a20726f79616c7479206665652077696c6c206578636565646044820152692073616c65507269636560b01b606482015260840161086a565b6001600160a01b0382166120095760405162461bcd60e51b815260206004820152601960248201527f455243323938313a20696e76616c696420726563656976657200000000000000604482015260640161086a565b604080518082019091526001600160a01b039092168083526001600160601b039091166020909201829052600160a01b90910217600955565b604051630a85bd0160e11b81526000906001600160a01b0385169063150b7a0290612077903390899088908890600401612b30565b6020604051808303816000875af19250505080156120b2575060408051601f3d908101601f191682019092526120af91810190612b6d565b60015b612110573d8080156120e0576040519150601f19603f3d011682016040523d82523d6000602084013e6120e5565b606091505b508051600003612108576040516368d2bf6b60e11b815260040160405180910390fd5b805181602001fd5b6001600160e01b031916630a85bd0160e11b1490505b949350505050565b6060600c8054610741906129ec565b6060816000036121645750506040805180820190915260018152600360fc1b602082015290565b8160005b811561218e578061217881612abe565b91506121879050600a83612aed565b9150612168565b6000816001600160401b038111156121a8576121a8612638565b6040519080825280601f01601f1916602001820160405280156121d2576020820181803683370190505b5090505b8415612126576121e7600183612b8a565b91506121f4600a86612ba1565b6121ff906030612a90565b60f81b81838151811061221457612214612aa8565b60200101906001600160f81b031916908160001a905350612236600a86612aed565b94506121d6565b60006001600160e01b031982166380ac58cd60e01b148061226e57506001600160e01b03198216635b5e139f60e01b145b8061072c57506301ffc9a760e01b6001600160e01b031983161461072c565b600081815b8451811015610ee45760008582815181106122af576122af612aa8565b602002602001015190508083116122d557600083815260208290526040902092506122e6565b600081815260208490526040902092505b50806122f181612abe565b915050612292565b828054612305906129ec565b90600052602060002090601f016020900481019282612327576000855561236d565b82601f106123405782800160ff1982351617855561236d565b8280016001018555821561236d579182015b8281111561236d578235825591602001919060010190612352565b5061237992915061237d565b5090565b5b80821115612379576000815560010161237e565b6001600160e01b03198116811461087e57600080fd5b6000602082840312156123ba57600080fd5b81356113a081612392565b60005b838110156123e05781810151838201526020016123c8565b838111156109e65750506000910152565b600081518084526124098160208601602086016123c5565b601f01601f19169290920160200192915050565b6020815260006113a060208301846123f1565b60006020828403121561244257600080fd5b5035919050565b80356001600160a01b038116811461246057600080fd5b919050565b6000806040838503121561247857600080fd5b61248183612449565b946020939093013593505050565b60008083601f8401126124a157600080fd5b5081356001600160401b038111156124b857600080fd5b6020830191508360208260051b8501011115610b2d57600080fd5b6000806000604084860312156124e857600080fd5b83356001600160401b038111156124fe57600080fd5b61250a8682870161248f565b909790965060209590950135949350505050565b60008060006060848603121561253357600080fd5b61253c84612449565b925061254a60208501612449565b9150604084013590509250925092565b6000806040838503121561256d57600080fd5b50508035926020909101359150565b60008060006040848603121561259157600080fd5b8335925060208401356001600160401b038111156125ae57600080fd5b6125ba8682870161248f565b9497909650939450505050565b600080602083850312156125da57600080fd5b82356001600160401b03808211156125f157600080fd5b818501915085601f83011261260557600080fd5b81358181111561261457600080fd5b86602082850101111561262657600080fd5b60209290920196919550909350505050565b634e487b7160e01b600052604160045260246000fd5b604051601f8201601f191681016001600160401b038111828210171561267657612676612638565b604052919050565b6000602080838503121561269157600080fd5b82356001600160401b03808211156126a857600080fd5b818501915085601f8301126126bc57600080fd5b8135818111156126ce576126ce612638565b8060051b91506126df84830161264e565b81815291830184019184810190888411156126f957600080fd5b938501935b83851015612717578435825293850193908501906126fe565b98975050505050505050565b6020808252825182820181905260009190848201906040850190845b818110156111495761277a83855180516001600160a01b031682526020808201516001600160401b0316908301526040908101511515910152565b928401926060929092019160010161273f565b60006020828403121561279f57600080fd5b6113a082612449565b6020808252825182820181905260009190848201906040850190845b81811015611149578351835292840192918401916001016127c4565b634e487b7160e01b600052602160045260246000fd5b602081016004831061281857634e487b7160e01b600052602160045260246000fd5b91905290565b6000806040838503121561283157600080fd5b61283a83612449565b915060208301356001600160601b038116811461285657600080fd5b809150509250929050565b60008060006060848603121561287657600080fd5b61287f84612449565b95602085013595506040909401359392505050565b600080604083850312156128a757600080fd5b6128b083612449565b91506020830135801515811461285657600080fd5b600080600080608085870312156128db57600080fd5b6128e485612449565b935060206128f3818701612449565b93506040860135925060608601356001600160401b038082111561291657600080fd5b818801915088601f83011261292a57600080fd5b81358181111561293c5761293c612638565b61294e601f8201601f1916850161264e565b9150808252898482850101111561296457600080fd5b808484018584013760008482840101525080935050505092959194509250565b81516001600160a01b031681526020808301516001600160401b0316908201526040808301511515908201526060810161072c565b600080604083850312156129cc57600080fd5b6129d583612449565b91506129e360208401612449565b90509250929050565b600181811c90821680612a0057607f821691505b602082108103612a2057634e487b7160e01b600052602260045260246000fd5b50919050565b6020808252818101527f4f776e61626c653a2063616c6c6572206973206e6f7420746865206f776e6572604082015260600190565b634e487b7160e01b600052601160045260246000fd5b6000816000190483118215151615612a8b57612a8b612a5b565b500290565b60008219821115612aa357612aa3612a5b565b500190565b634e487b7160e01b600052603260045260246000fd5b600060018201612ad057612ad0612a5b565b5060010190565b634e487b7160e01b600052601260045260246000fd5b600082612afc57612afc612ad7565b500490565b60008351612b138184602088016123c5565b835190830190612b278183602088016123c5565b01949350505050565b6001600160a01b0385811682528416602082015260408101839052608060608201819052600090612b63908301846123f1565b9695505050505050565b600060208284031215612b7f57600080fd5b81516113a081612392565b600082821015612b9c57612b9c612a5b565b500390565b600082612bb057612bb0612ad7565b50069056fea2646970667358221220baf5dc4495de1427167e5be25ec99b648bef9904240c529a322d816a7d43ae5d64736f6c634300080d0033",
  "immutableReferences": {},
  "source": "// SPDX-License-Identifier: MIT\npragma solidity >=0.4.22 <0.9.0;\n\n// @creator: HAGIA x TylersJourney\n// @title: RaffleGraphy\n// @author: @devbhang - devbhang.eth\n// @author: @hazelrah_nft - hazelrah.eth\n// @advisor: @berkozdemir - berk.eth\n\nimport \"erc721a/contracts/extensions/ERC721AQueryable.sol\";\nimport \"@openzeppelin/contracts/token/common/ERC2981.sol\";\nimport \"@openzeppelin/contracts/access/Ownable.sol\";\nimport \"@openzeppelin/contracts/utils/cryptography/MerkleProof.sol\";\n\n////////////////////////////////////////////////////////////////////////////////////////////////////////////////////////////////////////////////////////\n//                                                                                                                                                    //\n//                                                                                                                                                    //\n////////////////////////////////////////////////////////////////////////////////////////////////////////////////////////////////////////////////////////\n\ncontract RaffleGraphy is ERC721AQueryable, Ownable, ERC2981 {\n\t\n\tenum SaleStatus {\n\t\tNoSale,\n\t\tPreSale,\n\t\tPublicSale,\n\t\tSaleFinished\n\t}\n\t\n\tSaleStatus saleStatus = SaleStatus.NoSale;\n\t\n\tstring public baseURI;\n\t\n\tuint256 public constant MAX_MINT_PRE = 11;\n\tuint256 public constant MAX_MINT_PUBLIC = 51;\n\t\n\tuint256 public price = 0.1 ether;\n\t\n\tuint256 public maxSupply = 501;\n\n\taddress public treasuryAddress;\n\t\n\tbytes32 private _merkleRoot;\n\t\n\tconstructor() ERC721A(\"RaffleGraphy\", \"RFLGRPHY\") {}\n\t\n\tfunction setRoyalty(address _address, uint96 _royalty) external onlyOwner {\n\t\ttreasuryAddress = _address;\n\t\t_setDefaultRoyalty(_address, _royalty);\n\t}\n\t\n\tfunction setPrice(uint256 _price) external onlyOwner {\n\t\tprice = _price;\n\t}\n\t\n\tfunction editMaxSupply(uint256 _maxSupply) external onlyOwner {\n\t\trequire(_maxSupply < maxSupply, \"MAX SUPPLY CAN'T EXCEED INITIAL SUPPLY\");\n\t\t\n\t\tmaxSupply = _maxSupply;\n\t}\n\n\tfunction _startTokenId() internal view virtual override returns (uint256) {\n\t\treturn 1;\n\t}\n\t\n\tfunction setBaseURI(string calldata _newBaseURI) external onlyOwner {\n\t\tbaseURI = _newBaseURI;\n\t}\n\t\n\tfunction _baseURI() internal view virtual override returns (string memory) {\n\t\treturn baseURI;\n\t}\n\t\n\tfunction supportsInterface(bytes4 interfaceId) public view virtual override(ERC721A, ERC2981, IERC165) returns (bool) {\n\t\treturn super.supportsInterface(interfaceId);\n\t}\n\t\n\tfunction getSaleStatus() public view returns (SaleStatus) {\n\t\treturn saleStatus;\n\t}\n\t\n\tfunction setSaleStatus(uint256 _saleStatus, bytes32 _root) external onlyOwner {\n\t\tsaleStatus = SaleStatus(_saleStatus);\n\t\t_merkleRoot = _root;\n\t}\n\t\n\tfunction _claimToken(uint256 _amount, uint256 _maxMint) internal virtual {\n\t\trequire(_numberMinted(msg.sender) + _amount < _maxMint, \"MAX MINT PER WALLET IS EXCEEDED\");\n\t\trequire(totalSupply() + _amount < maxSupply, \"MAX SUPPLY IS EXCEEDED\");\n\t\trequire(msg.value >= price * _amount, \"NOT ENOUGH ETHERS SEND\");\n\t\t\n\t\t_mint(msg.sender, _amount);\n\t}\n\t\n\tfunction claimTokenPre(uint256 _amount, bytes32[] calldata _merkleProof) external payable {\n\t\trequire(saleStatus == SaleStatus.PreSale, \"PRE SALE IS NOT OPEN\");\n\t\trequire(MerkleProof.verify(_merkleProof, _merkleRoot, keccak256(abi.encodePacked(msg.sender))), \"ADDRESS NOT WHITELISTED\");\n\t\t\n\t\t_claimToken(_amount, MAX_MINT_PRE);\n\t}\n\t\n\tfunction claimTokenPublic(uint256 _amount) external payable {\n\t\trequire(saleStatus == SaleStatus.PublicSale, \"PUBLIC SALE IS NOT OPEN\");\n\t\t\n\t\t_claimToken(_amount, MAX_MINT_PUBLIC);\n\t}\n\t\n\tfunction claimAdmin(address[] calldata _to, uint256 _amount) external onlyOwner {\n\t\trequire(totalSupply() + (_amount * _to.length) < maxSupply, \"MAX SUPPLY IS EXCEEDED\");\n\t\t\n\t\tfor (uint i; i < _to.length; i++) {\n\t\t\t_mint(_to[i], _amount);\n\t\t}\n\t}\n\t\n\tfunction withdraw() external onlyOwner {\n\t\trequire(saleStatus == SaleStatus.SaleFinished, \"CAN'T WITHDRAW DURING SALE\");\n\t\trequire(address(this).balance > 0, \"INSUFFICIENT FUNDS\");\n\t\t\n\t\tpayable(treasuryAddress).transfer(address(this).balance);\n\t}\n\t\n\tfunction burn(uint256 _tokenId) public {\n\t\trequire(saleStatus == SaleStatus.SaleFinished, \"CAN'T BURN DURING SALE\");\n\t\t\n\t\t_burn(_tokenId, true);\n\t}\n\t\n}\n",
  "sourcePath": "/Users/devbhang/Documents/Projects/hagia-contracts/contracts/RaffleGraphy.sol",
  "compiler": {
    "name": "solc",
    "version": "0.8.13+commit.abaa5c0e.Emscripten.clang"
  },
  "schemaVersion": "3.4.10",
  "updatedAt": "2022-10-27T22:29:25.058Z",
  "networkType": "ethereum",
  "devdoc": {
    "kind": "dev",
    "methods": {
      "approve(address,uint256)": {
        "details": "See {IERC721-approve}."
      },
      "balanceOf(address)": {
        "details": "See {IERC721-balanceOf}."
      },
      "explicitOwnershipOf(uint256)": {
        "details": "Returns the `TokenOwnership` struct at `tokenId` without reverting. If the `tokenId` is out of bounds:   - `addr` = `address(0)`   - `startTimestamp` = `0`   - `burned` = `false` If the `tokenId` is burned:   - `addr` = `<Address of owner before token was burned>`   - `startTimestamp` = `<Timestamp when token was burned>`   - `burned = `true` Otherwise:   - `addr` = `<Address of owner>`   - `startTimestamp` = `<Timestamp of start of ownership>`   - `burned = `false`"
      },
      "explicitOwnershipsOf(uint256[])": {
        "details": "Returns an array of `TokenOwnership` structs at `tokenIds` in order. See {ERC721AQueryable-explicitOwnershipOf}"
      },
      "getApproved(uint256)": {
        "details": "See {IERC721-getApproved}."
      },
      "isApprovedForAll(address,address)": {
        "details": "See {IERC721-isApprovedForAll}."
      },
      "name()": {
        "details": "See {IERC721Metadata-name}."
      },
      "owner()": {
        "details": "Returns the address of the current owner."
      },
      "ownerOf(uint256)": {
        "details": "See {IERC721-ownerOf}."
      },
      "renounceOwnership()": {
        "details": "Leaves the contract without owner. It will not be possible to call `onlyOwner` functions anymore. Can only be called by the current owner. NOTE: Renouncing ownership will leave the contract without an owner, thereby removing any functionality that is only available to the owner."
      },
      "royaltyInfo(uint256,uint256)": {
        "details": "Returns how much royalty is owed and to whom, based on a sale price that may be denominated in any unit of exchange. The royalty amount is denominated and should be paid in that same unit of exchange."
      },
      "safeTransferFrom(address,address,uint256)": {
        "details": "See {IERC721-safeTransferFrom}."
      },
      "safeTransferFrom(address,address,uint256,bytes)": {
        "details": "See {IERC721-safeTransferFrom}."
      },
      "setApprovalForAll(address,bool)": {
        "details": "See {IERC721-setApprovalForAll}."
      },
      "symbol()": {
        "details": "See {IERC721Metadata-symbol}."
      },
      "tokenURI(uint256)": {
        "details": "See {IERC721Metadata-tokenURI}."
      },
      "tokensOfOwner(address)": {
        "details": "Returns an array of token IDs owned by `owner`. This function scans the ownership mapping and is O(totalSupply) in complexity. It is meant to be called off-chain. See {ERC721AQueryable-tokensOfOwnerIn} for splitting the scan into multiple smaller scans if the collection is large enough to cause an out-of-gas error (10K pfp collections should be fine)."
      },
      "tokensOfOwnerIn(address,uint256,uint256)": {
        "details": "Returns an array of token IDs owned by `owner`, in the range [`start`, `stop`) (i.e. `start <= tokenId < stop`). This function allows for tokens to be queried if the collection grows too big for a single call of {ERC721AQueryable-tokensOfOwner}. Requirements: - `start` < `stop`"
      },
      "totalSupply()": {
        "details": "Burned tokens are calculated here, use _totalMinted() if you want to count just minted tokens."
      },
      "transferFrom(address,address,uint256)": {
        "details": "See {IERC721-transferFrom}."
      },
      "transferOwnership(address)": {
        "details": "Transfers ownership of the contract to a new account (`newOwner`). Can only be called by the current owner."
      }
    },
    "version": 1
  },
  "userdoc": {
    "errors": {
      "ApprovalCallerNotOwnerNorApproved()": [
        {
          "notice": "The caller must own the token or be an approved operator."
        }
      ],
      "ApprovalQueryForNonexistentToken()": [
        {
          "notice": "The token does not exist."
        }
      ],
      "ApprovalToCurrentOwner()": [
        {
          "notice": "The caller cannot approve to the current owner."
        }
      ],
      "ApproveToCaller()": [
        {
          "notice": "The caller cannot approve to their own address."
        }
      ],
      "BalanceQueryForZeroAddress()": [
        {
          "notice": "Cannot query the balance for the zero address."
        }
      ],
      "InvalidQueryRange()": [
        {
          "notice": "Invalid query range (`start` >= `stop`)."
        }
      ],
      "MintToZeroAddress()": [
        {
          "notice": "Cannot mint to the zero address."
        }
      ],
      "MintZeroQuantity()": [
        {
          "notice": "The quantity of tokens minted must be more than zero."
        }
      ],
      "OwnerQueryForNonexistentToken()": [
        {
          "notice": "The token does not exist."
        }
      ],
      "TransferCallerNotOwnerNorApproved()": [
        {
          "notice": "The caller must own the token or be an approved operator."
        }
      ],
      "TransferFromIncorrectOwner()": [
        {
          "notice": "The token must be owned by `from`."
        }
      ],
      "TransferToNonERC721ReceiverImplementer()": [
        {
          "notice": "Cannot safely transfer to a contract that does not implement the ERC721Receiver interface."
        }
      ],
      "TransferToZeroAddress()": [
        {
          "notice": "Cannot transfer to the zero address."
        }
      ],
      "URIQueryForNonexistentToken()": [
        {
          "notice": "The token does not exist."
        }
      ]
    },
    "kind": "user",
    "methods": {},
    "version": 1
  }
}