{
  "contractName": "RaffleGraphy",
  "abi": [
    {
      "inputs": [],
      "stateMutability": "nonpayable",
      "type": "constructor"
    },
    {
      "inputs": [],
      "name": "ApprovalCallerNotOwnerNorApproved",
      "type": "error"
    },
    {
      "inputs": [],
      "name": "ApprovalQueryForNonexistentToken",
      "type": "error"
    },
    {
      "inputs": [],
      "name": "ApprovalToCurrentOwner",
      "type": "error"
    },
    {
      "inputs": [],
      "name": "ApproveToCaller",
      "type": "error"
    },
    {
      "inputs": [],
      "name": "BalanceQueryForZeroAddress",
      "type": "error"
    },
    {
      "inputs": [],
      "name": "InvalidQueryRange",
      "type": "error"
    },
    {
      "inputs": [],
      "name": "MintToZeroAddress",
      "type": "error"
    },
    {
      "inputs": [],
      "name": "MintZeroQuantity",
      "type": "error"
    },
    {
      "inputs": [],
      "name": "OwnerQueryForNonexistentToken",
      "type": "error"
    },
    {
      "inputs": [],
      "name": "TransferCallerNotOwnerNorApproved",
      "type": "error"
    },
    {
      "inputs": [],
      "name": "TransferFromIncorrectOwner",
      "type": "error"
    },
    {
      "inputs": [],
      "name": "TransferToNonERC721ReceiverImplementer",
      "type": "error"
    },
    {
      "inputs": [],
      "name": "TransferToZeroAddress",
      "type": "error"
    },
    {
      "inputs": [],
      "name": "URIQueryForNonexistentToken",
      "type": "error"
    },
    {
      "anonymous": false,
      "inputs": [
        {
          "indexed": true,
          "internalType": "address",
          "name": "owner",
          "type": "address"
        },
        {
          "indexed": true,
          "internalType": "address",
          "name": "approved",
          "type": "address"
        },
        {
          "indexed": true,
          "internalType": "uint256",
          "name": "tokenId",
          "type": "uint256"
        }
      ],
      "name": "Approval",
      "type": "event"
    },
    {
      "anonymous": false,
      "inputs": [
        {
          "indexed": true,
          "internalType": "address",
          "name": "owner",
          "type": "address"
        },
        {
          "indexed": true,
          "internalType": "address",
          "name": "operator",
          "type": "address"
        },
        {
          "indexed": false,
          "internalType": "bool",
          "name": "approved",
          "type": "bool"
        }
      ],
      "name": "ApprovalForAll",
      "type": "event"
    },
    {
      "anonymous": false,
      "inputs": [
        {
          "indexed": true,
          "internalType": "address",
          "name": "previousOwner",
          "type": "address"
        },
        {
          "indexed": true,
          "internalType": "address",
          "name": "newOwner",
          "type": "address"
        }
      ],
      "name": "OwnershipTransferred",
      "type": "event"
    },
    {
      "anonymous": false,
      "inputs": [
        {
          "indexed": true,
          "internalType": "address",
          "name": "from",
          "type": "address"
        },
        {
          "indexed": true,
          "internalType": "address",
          "name": "to",
          "type": "address"
        },
        {
          "indexed": true,
          "internalType": "uint256",
          "name": "tokenId",
          "type": "uint256"
        }
      ],
      "name": "Transfer",
      "type": "event"
    },
    {
      "inputs": [],
      "name": "MAX_MINT_PRIVATE",
      "outputs": [
        {
          "internalType": "uint256",
          "name": "",
          "type": "uint256"
        }
      ],
      "stateMutability": "view",
      "type": "function"
    },
    {
      "inputs": [],
      "name": "MAX_MINT_PUBLIC",
      "outputs": [
        {
          "internalType": "uint256",
          "name": "",
          "type": "uint256"
        }
      ],
      "stateMutability": "view",
      "type": "function"
    },
    {
      "inputs": [
        {
          "internalType": "address",
          "name": "to",
          "type": "address"
        },
        {
          "internalType": "uint256",
          "name": "tokenId",
          "type": "uint256"
        }
      ],
      "name": "approve",
      "outputs": [],
      "stateMutability": "nonpayable",
      "type": "function"
    },
    {
      "inputs": [
        {
          "internalType": "address",
          "name": "owner",
          "type": "address"
        }
      ],
      "name": "balanceOf",
      "outputs": [
        {
          "internalType": "uint256",
          "name": "",
          "type": "uint256"
        }
      ],
      "stateMutability": "view",
      "type": "function"
    },
    {
      "inputs": [],
      "name": "baseURI",
      "outputs": [
        {
          "internalType": "string",
          "name": "",
          "type": "string"
        }
      ],
      "stateMutability": "view",
      "type": "function"
    },
    {
      "inputs": [
        {
          "internalType": "uint256",
          "name": "",
          "type": "uint256"
        }
      ],
      "name": "creators",
      "outputs": [
        {
          "internalType": "address",
          "name": "",
          "type": "address"
        }
      ],
      "stateMutability": "view",
      "type": "function"
    },
    {
      "inputs": [
        {
          "internalType": "uint256",
          "name": "tokenId",
          "type": "uint256"
        }
      ],
      "name": "explicitOwnershipOf",
      "outputs": [
        {
          "components": [
            {
              "internalType": "address",
              "name": "addr",
              "type": "address"
            },
            {
              "internalType": "uint64",
              "name": "startTimestamp",
              "type": "uint64"
            },
            {
              "internalType": "bool",
              "name": "burned",
              "type": "bool"
            }
          ],
          "internalType": "struct ERC721A.TokenOwnership",
          "name": "",
          "type": "tuple"
        }
      ],
      "stateMutability": "view",
      "type": "function"
    },
    {
      "inputs": [
        {
          "internalType": "uint256[]",
          "name": "tokenIds",
          "type": "uint256[]"
        }
      ],
      "name": "explicitOwnershipsOf",
      "outputs": [
        {
          "components": [
            {
              "internalType": "address",
              "name": "addr",
              "type": "address"
            },
            {
              "internalType": "uint64",
              "name": "startTimestamp",
              "type": "uint64"
            },
            {
              "internalType": "bool",
              "name": "burned",
              "type": "bool"
            }
          ],
          "internalType": "struct ERC721A.TokenOwnership[]",
          "name": "",
          "type": "tuple[]"
        }
      ],
      "stateMutability": "view",
      "type": "function"
    },
    {
      "inputs": [
        {
          "internalType": "uint256",
          "name": "tokenId",
          "type": "uint256"
        }
      ],
      "name": "getApproved",
      "outputs": [
        {
          "internalType": "address",
          "name": "",
          "type": "address"
        }
      ],
      "stateMutability": "view",
      "type": "function"
    },
    {
      "inputs": [
        {
          "internalType": "address",
          "name": "owner",
          "type": "address"
        },
        {
          "internalType": "address",
          "name": "operator",
          "type": "address"
        }
      ],
      "name": "isApprovedForAll",
      "outputs": [
        {
          "internalType": "bool",
          "name": "",
          "type": "bool"
        }
      ],
      "stateMutability": "view",
      "type": "function"
    },
    {
      "inputs": [],
      "name": "maxSupply",
      "outputs": [
        {
          "internalType": "uint256",
          "name": "",
          "type": "uint256"
        }
      ],
      "stateMutability": "view",
      "type": "function"
    },
    {
      "inputs": [],
      "name": "name",
      "outputs": [
        {
          "internalType": "string",
          "name": "",
          "type": "string"
        }
      ],
      "stateMutability": "view",
      "type": "function"
    },
    {
      "inputs": [],
      "name": "owner",
      "outputs": [
        {
          "internalType": "address",
          "name": "",
          "type": "address"
        }
      ],
      "stateMutability": "view",
      "type": "function"
    },
    {
      "inputs": [
        {
          "internalType": "uint256",
          "name": "tokenId",
          "type": "uint256"
        }
      ],
      "name": "ownerOf",
      "outputs": [
        {
          "internalType": "address",
          "name": "",
          "type": "address"
        }
      ],
      "stateMutability": "view",
      "type": "function"
    },
    {
      "inputs": [],
      "name": "price",
      "outputs": [
        {
          "internalType": "uint256",
          "name": "",
          "type": "uint256"
        }
      ],
      "stateMutability": "view",
      "type": "function"
    },
    {
      "inputs": [],
      "name": "renounceOwnership",
      "outputs": [],
      "stateMutability": "nonpayable",
      "type": "function"
    },
    {
      "inputs": [
        {
          "internalType": "uint256",
          "name": "_tokenId",
          "type": "uint256"
        },
        {
          "internalType": "uint256",
          "name": "_salePrice",
          "type": "uint256"
        }
      ],
      "name": "royaltyInfo",
      "outputs": [
        {
          "internalType": "address",
          "name": "",
          "type": "address"
        },
        {
          "internalType": "uint256",
          "name": "",
          "type": "uint256"
        }
      ],
      "stateMutability": "view",
      "type": "function"
    },
    {
      "inputs": [
        {
          "internalType": "address",
          "name": "from",
          "type": "address"
        },
        {
          "internalType": "address",
          "name": "to",
          "type": "address"
        },
        {
          "internalType": "uint256",
          "name": "tokenId",
          "type": "uint256"
        }
      ],
      "name": "safeTransferFrom",
      "outputs": [],
      "stateMutability": "nonpayable",
      "type": "function"
    },
    {
      "inputs": [
        {
          "internalType": "address",
          "name": "from",
          "type": "address"
        },
        {
          "internalType": "address",
          "name": "to",
          "type": "address"
        },
        {
          "internalType": "uint256",
          "name": "tokenId",
          "type": "uint256"
        },
        {
          "internalType": "bytes",
          "name": "_data",
          "type": "bytes"
        }
      ],
      "name": "safeTransferFrom",
      "outputs": [],
      "stateMutability": "nonpayable",
      "type": "function"
    },
    {
      "inputs": [
        {
          "internalType": "address",
          "name": "operator",
          "type": "address"
        },
        {
          "internalType": "bool",
          "name": "approved",
          "type": "bool"
        }
      ],
      "name": "setApprovalForAll",
      "outputs": [],
      "stateMutability": "nonpayable",
      "type": "function"
    },
    {
      "inputs": [],
      "name": "symbol",
      "outputs": [
        {
          "internalType": "string",
          "name": "",
          "type": "string"
        }
      ],
      "stateMutability": "view",
      "type": "function"
    },
    {
      "inputs": [
        {
          "internalType": "uint256",
          "name": "tokenId",
          "type": "uint256"
        }
      ],
      "name": "tokenURI",
      "outputs": [
        {
          "internalType": "string",
          "name": "",
          "type": "string"
        }
      ],
      "stateMutability": "view",
      "type": "function"
    },
    {
      "inputs": [
        {
          "internalType": "address",
          "name": "owner",
          "type": "address"
        }
      ],
      "name": "tokensOfOwner",
      "outputs": [
        {
          "internalType": "uint256[]",
          "name": "",
          "type": "uint256[]"
        }
      ],
      "stateMutability": "view",
      "type": "function"
    },
    {
      "inputs": [
        {
          "internalType": "address",
          "name": "owner",
          "type": "address"
        },
        {
          "internalType": "uint256",
          "name": "start",
          "type": "uint256"
        },
        {
          "internalType": "uint256",
          "name": "stop",
          "type": "uint256"
        }
      ],
      "name": "tokensOfOwnerIn",
      "outputs": [
        {
          "internalType": "uint256[]",
          "name": "",
          "type": "uint256[]"
        }
      ],
      "stateMutability": "view",
      "type": "function"
    },
    {
      "inputs": [],
      "name": "totalSupply",
      "outputs": [
        {
          "internalType": "uint256",
          "name": "",
          "type": "uint256"
        }
      ],
      "stateMutability": "view",
      "type": "function"
    },
    {
      "inputs": [
        {
          "internalType": "address",
          "name": "from",
          "type": "address"
        },
        {
          "internalType": "address",
          "name": "to",
          "type": "address"
        },
        {
          "internalType": "uint256",
          "name": "tokenId",
          "type": "uint256"
        }
      ],
      "name": "transferFrom",
      "outputs": [],
      "stateMutability": "nonpayable",
      "type": "function"
    },
    {
      "inputs": [
        {
          "internalType": "address",
          "name": "newOwner",
          "type": "address"
        }
      ],
      "name": "transferOwnership",
      "outputs": [],
      "stateMutability": "nonpayable",
      "type": "function"
    },
    {
      "inputs": [],
      "name": "treasuryAddress",
      "outputs": [
        {
          "internalType": "address",
          "name": "",
          "type": "address"
        }
      ],
      "stateMutability": "view",
      "type": "function"
    },
    {
      "inputs": [
        {
          "internalType": "address[]",
          "name": "_creators",
          "type": "address[]"
        }
      ],
      "name": "addCreators",
      "outputs": [],
      "stateMutability": "nonpayable",
      "type": "function"
    },
    {
      "inputs": [
        {
          "internalType": "uint256",
          "name": "_index",
          "type": "uint256"
        },
        {
          "internalType": "address",
          "name": "_creator",
          "type": "address"
        }
      ],
      "name": "editCreators",
      "outputs": [],
      "stateMutability": "nonpayable",
      "type": "function"
    },
    {
      "inputs": [
        {
          "internalType": "address",
          "name": "_address",
          "type": "address"
        },
        {
          "internalType": "uint96",
          "name": "_royalty",
          "type": "uint96"
        }
      ],
      "name": "setRoyalty",
      "outputs": [],
      "stateMutability": "nonpayable",
      "type": "function"
    },
    {
      "inputs": [
        {
          "internalType": "uint256",
          "name": "_price",
          "type": "uint256"
        }
      ],
      "name": "setPrice",
      "outputs": [],
      "stateMutability": "nonpayable",
      "type": "function"
    },
    {
      "inputs": [
        {
          "internalType": "uint256",
          "name": "_maxSupply",
          "type": "uint256"
        }
      ],
      "name": "editMaxSupply",
      "outputs": [],
      "stateMutability": "nonpayable",
      "type": "function"
    },
    {
      "inputs": [
        {
          "internalType": "string",
          "name": "_newBaseURI",
          "type": "string"
        }
      ],
      "name": "setBaseURI",
      "outputs": [],
      "stateMutability": "nonpayable",
      "type": "function"
    },
    {
      "inputs": [
        {
          "internalType": "bytes4",
          "name": "interfaceId",
          "type": "bytes4"
        }
      ],
      "name": "supportsInterface",
      "outputs": [
        {
          "internalType": "bool",
          "name": "",
          "type": "bool"
        }
      ],
      "stateMutability": "view",
      "type": "function"
    },
    {
      "inputs": [],
      "name": "getSaleStatus",
      "outputs": [
        {
          "internalType": "enum RaffleGraphy.SaleStatus",
          "name": "",
          "type": "uint8"
        }
      ],
      "stateMutability": "view",
      "type": "function"
    },
    {
      "inputs": [
        {
          "internalType": "uint256",
          "name": "_saleStatus",
          "type": "uint256"
        },
        {
          "internalType": "bytes32",
          "name": "_root",
          "type": "bytes32"
        }
      ],
      "name": "setSaleStatus",
      "outputs": [],
      "stateMutability": "nonpayable",
      "type": "function"
    },
    {
      "inputs": [
        {
          "internalType": "uint256",
          "name": "_amount",
          "type": "uint256"
        },
        {
          "internalType": "bytes32[]",
          "name": "_merkleProof",
          "type": "bytes32[]"
        }
      ],
      "name": "claimTokenPrivate",
      "outputs": [],
      "stateMutability": "payable",
      "type": "function"
    },
    {
      "inputs": [
        {
          "internalType": "uint256",
          "name": "_amount",
          "type": "uint256"
        }
      ],
      "name": "claimTokenPublic",
      "outputs": [],
      "stateMutability": "payable",
      "type": "function"
    },
    {
      "inputs": [
        {
          "internalType": "address[]",
          "name": "_to",
          "type": "address[]"
        },
        {
          "internalType": "uint256",
          "name": "_amount",
          "type": "uint256"
        }
      ],
      "name": "mintAdmin",
      "outputs": [],
      "stateMutability": "nonpayable",
      "type": "function"
    },
    {
      "inputs": [],
      "name": "withdraw",
      "outputs": [],
      "stateMutability": "nonpayable",
      "type": "function"
    },
    {
      "inputs": [
        {
          "internalType": "uint256",
          "name": "_tokenId",
          "type": "uint256"
        }
      ],
      "name": "burn",
      "outputs": [],
      "stateMutability": "nonpayable",
      "type": "function"
    }
  ],
  "bytecode": "0x6080604052600c805460ff1916905567016345785d8a0000600e556103e9600f553480156200002d57600080fd5b50604080518082018252600c81526b526166666c6547726170687960a01b60208083019182528351808501909452600784526652464c4750485960c81b908401528151919291620000819160039162000102565b5080516200009790600490602084019062000102565b5050600060015550620000aa33620000b0565b620001e4565b600980546001600160a01b038381166001600160a01b0319831681179093556040519116919082907f8be0079c531659141344cd1fd0a4f28419497f9722a3daafe3b4186f6b6457e090600090a35050565b8280546200011090620001a8565b90600052602060002090601f0160209004810192826200013457600085556200017f565b82601f106200014f57805160ff19168380011785556200017f565b828001600101855582156200017f579182015b828111156200017f57825182559160200191906001019062000162565b506200018d92915062000191565b5090565b5b808211156200018d576000815560010162000192565b600181811c90821680620001bd57607f821691505b602082108103620001de57634e487b7160e01b600052602260045260246000fd5b50919050565b61300e80620001f46000396000f3fe6080604052600436106102515760003560e01c80636cf3e95211610139578063a035b1fe116100b6578063c87b56dd1161007a578063c87b56dd146106e8578063cd53d08e14610708578063d5abeb0114610728578063e985e9c51461073e578063f2fde38b1461075e578063fb7983ed1461077e57600080fd5b8063a035b1fe14610645578063a22cb4651461065b578063b88d4fde1461067b578063c23dc68f1461069b578063c5f956af146106c857600080fd5b80638da5cb5b116100fd5780638da5cb5b146105b25780638f2fc60b146105d057806391b7f5ed146105f057806395d89b411461061057806399a2557a1461062557600080fd5b80636cf3e9521461051057806370a0823114610530578063715018a6146105505780638462151c146105655780638c3c4b341461059257600080fd5b80633301235c116101d257806355f804b31161019657806355f804b3146104665780635772e15a146104865780635bbb21771461049957806363172ac1146104c65780636352211e146104db5780636c0360eb146104fb57600080fd5b80633301235c146103dc57806336cb8a5e146103f15780633ccfd60b1461041157806342842e0e1461042657806342966c681461044657600080fd5b80630e310d28116102195780630e310d281461031a57806318160ddd1461033a57806323b872dd1461035d5780632a55205a1461037d5780632c317b14146103bc57600080fd5b806301ffc9a71461025657806306fdde031461028b578063081812fc146102ad578063089e24cd146102e5578063095ea7b3146102fa575b600080fd5b34801561026257600080fd5b50610276610271366004612747565b61079e565b60405190151581526020015b60405180910390f35b34801561029757600080fd5b506102a06107af565b60405161028291906127bc565b3480156102b957600080fd5b506102cd6102c83660046127cf565b610841565b6040516001600160a01b039091168152602001610282565b6102f86102f33660046127cf565b610885565b005b34801561030657600080fd5b506102f8610315366004612804565b6108fe565b34801561032657600080fd5b506102f86103353660046127cf565b61098b565b34801561034657600080fd5b50600254600154035b604051908152602001610282565b34801561036957600080fd5b506102f861037836600461282e565b610a1a565b34801561038957600080fd5b5061039d61039836600461286a565b610a25565b604080516001600160a01b039093168352602083019190915201610282565b3480156103c857600080fd5b506102f86103d73660046128d0565b610ad3565b3480156103e857600080fd5b5061034f601581565b3480156103fd57600080fd5b506102f861040c36600461291b565b610c13565b34801561041d57600080fd5b506102f8610d07565b34801561043257600080fd5b506102f861044136600461282e565b610e15565b34801561045257600080fd5b506102f86104613660046127cf565b610e30565b34801561047257600080fd5b506102f861048136600461295c565b610e9a565b6102f86104943660046129cd565b610ed0565b3480156104a557600080fd5b506104b96104b4366004612a5e565b611041565b6040516102829190612b03565b3480156104d257600080fd5b5061034f600b81565b3480156104e757600080fd5b506102cd6104f63660046127cf565b611107565b34801561050757600080fd5b506102a0611119565b34801561051c57600080fd5b506102f861052b366004612b6d565b6111a7565b34801561053c57600080fd5b5061034f61054b366004612b99565b611256565b34801561055c57600080fd5b506102f86112a4565b34801561057157600080fd5b50610585610580366004612b99565b6112da565b6040516102829190612bb4565b34801561059e57600080fd5b50600c5460ff166040516102829190612c02565b3480156105be57600080fd5b506009546001600160a01b03166102cd565b3480156105dc57600080fd5b506102f86105eb366004612c2a565b61141f565b3480156105fc57600080fd5b506102f861060b3660046127cf565b611472565b34801561061c57600080fd5b506102a06114a1565b34801561063157600080fd5b50610585610640366004612c6d565b6114b0565b34801561065157600080fd5b5061034f600e5481565b34801561066757600080fd5b506102f8610676366004612ca0565b611665565b34801561068757600080fd5b506102f8610696366004612cd1565b6116fa565b3480156106a757600080fd5b506106bb6106b63660046127cf565b611745565b6040516102829190612d90565b3480156106d457600080fd5b506010546102cd906001600160a01b031681565b3480156106f457600080fd5b506102a06107033660046127cf565b6117f3565b34801561071457600080fd5b506102cd6107233660046127cf565b611876565b34801561073457600080fd5b5061034f600f5481565b34801561074a57600080fd5b50610276610759366004612dc5565b6118a0565b34801561076a57600080fd5b506102f8610779366004612b99565b6118ce565b34801561078a57600080fd5b506102f861079936600461286a565b611966565b60006107a9826119c9565b92915050565b6060600380546107be90612def565b80601f01602080910402602001604051908101604052809291908181526020018280546107ea90612def565b80156108375780601f1061080c57610100808354040283529160200191610837565b820191906000526020600020905b81548152906001019060200180831161081a57829003601f168201915b5050505050905090565b600061084c826119ee565b610869576040516333d1c03960e21b815260040160405180910390fd5b506000908152600760205260409020546001600160a01b031690565b6003600c5460ff16600481111561089e5761089e612bec565b146108f05760405162461bcd60e51b815260206004820152601760248201527f5055424c49432053414c45204953204e4f54204f50454e00000000000000000060448201526064015b60405180910390fd5b6108fb81600b611a1a565b50565b600061090982611107565b9050806001600160a01b0316836001600160a01b03160361093d5760405163250fdee360e21b815260040160405180910390fd5b336001600160a01b0382161480159061095d575061095b81336118a0565b155b1561097b576040516367d9dca160e11b815260040160405180910390fd5b610986838383611bb2565b505050565b6009546001600160a01b031633146109b55760405162461bcd60e51b81526004016108e790612e29565b600f548110610a155760405162461bcd60e51b815260206004820152602660248201527f4d415820535550504c592043414e27542045584345454420494e495449414c20604482015265535550504c5960d01b60648201526084016108e7565b600f55565b610986838383611c0e565b6000828152600b602090815260408083208151808301909252546001600160a01b038116808352600160a01b9091046001600160601b0316928201929092528291610a9a575060408051808201909152600a546001600160a01b0381168252600160a01b90046001600160601b031660208201525b602081015160009061271090610ab9906001600160601b031687612e74565b610ac39190612ea9565b91519350909150505b9250929050565b6009546001600160a01b03163314610afd5760405162461bcd60e51b81526004016108e790612e29565b6004600c5460ff166004811115610b1657610b16612bec565b14610b5c5760405162461bcd60e51b815260206004820152601660248201527543414e2754204d494e5420445552494e472053414c4560501b60448201526064016108e7565b600f54610b698383612e74565b60025460015403610b7a9190612ebd565b10610bc05760405162461bcd60e51b81526020600482015260166024820152751350560814d554141316481254c8115610d15151115160521b60448201526064016108e7565b60005b82811015610c0d57610bfb848483818110610be057610be0612ed5565b9050602002016020810190610bf59190612b99565b83611de9565b80610c0581612eeb565b915050610bc3565b50505050565b6009546001600160a01b03163314610c3d5760405162461bcd60e51b81526004016108e790612e29565b600054601590610c4e908390612ebd565b10610c8f5760405162461bcd60e51b8152602060048201526011602482015270544f4f204d414e592043524541544f525360781b60448201526064016108e7565b60005b81811015610986576000838383818110610cae57610cae612ed5565b9050602002016020810190610cc39190612b99565b81546001810183556000928352602090922090910180546001600160a01b0319166001600160a01b0390921691909117905580610cff81612eeb565b915050610c92565b6009546001600160a01b03163314610d315760405162461bcd60e51b81526004016108e790612e29565b6004600c5460ff166004811115610d4a57610d4a612bec565b14610d975760405162461bcd60e51b815260206004820152601a60248201527f43414e275420574954484452415720445552494e472053414c4500000000000060448201526064016108e7565b60004711610ddc5760405162461bcd60e51b8152602060048201526012602482015271494e53554646494349454e542046554e445360701b60448201526064016108e7565b6010546040516001600160a01b03909116904780156108fc02916000818181858888f193505050501580156108fb573d6000803e3d6000fd5b610986838383604051806020016040528060008152506116fa565b6004600c5460ff166004811115610e4957610e49612bec565b14610e8f5760405162461bcd60e51b815260206004820152601660248201527543414e2754204255524e20445552494e472053414c4560501b60448201526064016108e7565b6108fb816001611fae565b6009546001600160a01b03163314610ec45760405162461bcd60e51b81526004016108e790612e29565b610986600d8383612698565b6001600c5460ff166004811115610ee957610ee9612bec565b1480610f0b57506002600c5460ff166004811115610f0957610f09612bec565b145b610f4a5760405162461bcd60e51b815260206004820152601060248201526f29a0a6229024a9902727aa1027a822a760811b60448201526064016108e7565b610fbf828280806020026020016040519081016040528093929190818152602001838360200280828437600092019190915250506011546040516bffffffffffffffffffffffff193360601b166020820152909250603401905060405160208183030381529060405280519060200120612162565b61100b5760405162461bcd60e51b815260206004820152601760248201527f41444452455353204e4f542057484954454c495354454400000000000000000060448201526064016108e7565b60006001600c5460ff16600481111561102657611026612bec565b1461103257600b611035565b60155b9050610c0d8482611a1a565b80516060906000816001600160401b0381111561106057611060612a18565b6040519080825280602002602001820160405280156110ab57816020015b604080516060810182526000808252602080830182905292820152825260001990920191018161107e5790505b50905060005b8281146110ff576110da8582815181106110cd576110cd612ed5565b6020026020010151611745565b8282815181106110ec576110ec612ed5565b60209081029190910101526001016110b1565b509392505050565b600061111282612178565b5192915050565b600d805461112690612def565b80601f016020809104026020016040519081016040528092919081815260200182805461115290612def565b801561119f5780601f106111745761010080835404028352916020019161119f565b820191906000526020600020905b81548152906001019060200180831161118257829003601f168201915b505050505081565b6009546001600160a01b031633146111d15760405162461bcd60e51b81526004016108e790612e29565b60005482106112105760405162461bcd60e51b815260206004820152600b60248201526a0aea49e9c8e40929c888ab60ab1b60448201526064016108e7565b806000838154811061122457611224612ed5565b9060005260206000200160006101000a8154816001600160a01b0302191690836001600160a01b031602179055505050565b60006001600160a01b03821661127f576040516323d3ad8160e21b815260040160405180910390fd5b506001600160a01b03166000908152600660205260409020546001600160401b031690565b6009546001600160a01b031633146112ce5760405162461bcd60e51b81526004016108e790612e29565b6112d86000612292565b565b606060008060006112ea85611256565b90506000816001600160401b0381111561130657611306612a18565b60405190808252806020026020018201604052801561132f578160200160208202803683370190505b509050611355604080516060810182526000808252602082018190529181019190915290565b60005b83861461141357600081815260056020908152604091829020825160608101845290546001600160a01b0381168252600160a01b81046001600160401b031692820192909252600160e01b90910460ff161515918101829052925061140b5781516001600160a01b0316156113cc57815194505b876001600160a01b0316856001600160a01b03160361140b57808387806001019850815181106113fe576113fe612ed5565b6020026020010181815250505b600101611358565b50909695505050505050565b6009546001600160a01b031633146114495760405162461bcd60e51b81526004016108e790612e29565b601080546001600160a01b0319166001600160a01b03841617905561146e82826122e4565b5050565b6009546001600160a01b0316331461149c5760405162461bcd60e51b81526004016108e790612e29565b600e55565b6060600480546107be90612def565b60608183106114d257604051631960ccad60e11b815260040160405180910390fd5b600154600090808411156114e4578093505b60006114ef87611256565b90508486101561150e5785850381811015611508578091505b50611512565b5060005b6000816001600160401b0381111561152c5761152c612a18565b604051908082528060200260200182016040528015611555578160200160208202803683370190505b5090508160000361156b57935061165e92505050565b600061157688611745565b905060008160400151611587575080515b885b8881141580156115995750848714155b1561165257600081815260056020908152604091829020825160608101845290546001600160a01b0381168252600160a01b81046001600160401b031692820192909252600160e01b90910460ff161515918101829052935061164a5782516001600160a01b03161561160b57825191505b8a6001600160a01b0316826001600160a01b03160361164a578084888060010199508151811061163d5761163d612ed5565b6020026020010181815250505b600101611589565b50505092835250909150505b9392505050565b336001600160a01b0383160361168e5760405163b06307db60e01b815260040160405180910390fd5b3360008181526008602090815260408083206001600160a01b03871680855290835292819020805460ff191686151590811790915590519081529192917f17307eab39ab6107e8899845ad3d59bd9653f200f220920489ca2b5937696c31910160405180910390a35050565b611705848484611c0e565b6001600160a01b0383163b151580156117275750611725848484846123e1565b155b15610c0d576040516368d2bf6b60e11b815260040160405180910390fd5b604080516060808201835260008083526020808401829052838501829052845192830185528183528201819052928101839052909150600154831061178a5792915050565b50600082815260056020908152604091829020825160608101845290546001600160a01b0381168252600160a01b81046001600160401b031692820192909252600160e01b90910460ff1615801592820192909252906117ea5792915050565b61165e83612178565b60606117fe826119ee565b61181b57604051630a14c4b560e41b815260040160405180910390fd5b60006118256124cd565b90508051600003611845576040518060200160405280600081525061165e565b8061184f846124dc565b604051602001611860929190612f04565b6040516020818303038152906040529392505050565b6000818154811061188657600080fd5b6000918252602090912001546001600160a01b0316905081565b6001600160a01b03918216600090815260086020908152604080832093909416825291909152205460ff1690565b6009546001600160a01b031633146118f85760405162461bcd60e51b81526004016108e790612e29565b6001600160a01b03811661195d5760405162461bcd60e51b815260206004820152602660248201527f4f776e61626c653a206e6577206f776e657220697320746865207a65726f206160448201526564647265737360d01b60648201526084016108e7565b6108fb81612292565b6009546001600160a01b031633146119905760405162461bcd60e51b81526004016108e790612e29565b8160048111156119a2576119a2612bec565b600c805460ff191660018360048111156119be576119be612bec565b021790555060115550565b60006001600160e01b0319821663152a902d60e11b14806107a957506107a9826125dc565b6000600154821080156107a9575050600090815260056020526040902054600160e01b900460ff161590565b323314611a5f5760405162461bcd60e51b815260206004820152601360248201527213d3931648121553505394c810531313d5d151606a1b60448201526064016108e7565b336000908152601260205260409020548190611a7c908490612ebd565b10611ac95760405162461bcd60e51b815260206004820152601f60248201527f4d4158204d494e54205045522057414c4c45542049532045584345454445440060448201526064016108e7565b600f5482611ada6002546001540390565b611ae49190612ebd565b10611b2a5760405162461bcd60e51b81526020600482015260166024820152751350560814d554141316481254c8115610d15151115160521b60448201526064016108e7565b81600e54611b389190612e74565b341015611b805760405162461bcd60e51b81526020600482015260166024820152751393d508115393d551d208115512115494c814d1539160521b60448201526064016108e7565b611b8a3383611de9565b3360009081526012602052604081208054849290611ba9908490612ebd565b90915550505050565b60008281526007602052604080822080546001600160a01b0319166001600160a01b0387811691821790925591518593918516917f8c5be1e5ebec7d5bd14f71427d1e84f3dd0314c0f7b2291e5b200ac8c7c3b92591a4505050565b6000611c1982612178565b9050836001600160a01b031681600001516001600160a01b031614611c505760405162a1148160e81b815260040160405180910390fd5b6000336001600160a01b0386161480611c6e5750611c6e85336118a0565b80611c89575033611c7e84610841565b6001600160a01b0316145b905080611ca957604051632ce44b5f60e11b815260040160405180910390fd5b6001600160a01b038416611cd057604051633a954ecd60e21b815260040160405180910390fd5b611cdc60008487611bb2565b6001600160a01b038581166000908152600660209081526040808320805467ffffffffffffffff198082166001600160401b0392831660001901831617909255898616808652838620805493841693831660019081018416949094179055898652600590945282852080546001600160e01b031916909417600160a01b42909216919091021783558701808452922080549193909116611db0576001548214611db057805460208601516001600160401b0316600160a01b026001600160e01b03199091166001600160a01b038a16171781555b50505082846001600160a01b0316866001600160a01b0316600080516020612fb983398151915260405160405180910390a45050505050565b6001546001600160a01b038316611e1257604051622e076360e81b815260040160405180910390fd5b81600003611e335760405163b562e8dd60e01b815260040160405180910390fd5b6001600160a01b038316600081815260066020908152604080832080546fffffffffffffffffffffffffffffffff1981166001600160401b038083168a0181169182176801000000000000000067ffffffffffffffff1990941690921783900481168a01811690920217909155858452600590925290912080546001600160e01b031916909217600160a01b4290921691909102179055808083015b600080548381611ee157611ee1612e93565b0690506000808281548110611ef857611ef8612ed5565b6000918252602090912001546001600160a01b03908116915087168103611f48576040516001850194906001600160a01b03831690600090600080516020612fb9833981519152908290a4611f9c565b60405184906001600160a01b03831690600090600080516020612fb9833981519152908290a46040516001850194906001600160a01b03808a169190841690600080516020612fb983398151915290600090a45b5050808203611ecf5750600155505050565b6000611fb983612178565b8051909150821561201f576000336001600160a01b0383161480611fe25750611fe282336118a0565b80611ffd575033611ff286610841565b6001600160a01b0316145b90508061201d57604051632ce44b5f60e11b815260040160405180910390fd5b505b61202b60008583611bb2565b6001600160a01b0380821660008181526006602090815260408083208054600160801b6000196001600160401b0380841691909101811667ffffffffffffffff198416811783900482166001908101831690930277ffffffffffffffff0000000000000000ffffffffffffffff19909416179290921783558b86526005909452828520805460ff60e01b1942909316600160a01b026001600160e01b03199091169097179690961716600160e01b17855591890180845292208054919490911661212957600154821461212957805460208701516001600160401b0316600160a01b026001600160e01b03199091166001600160a01b038716171781555b5050604051869250600091506001600160a01b03841690600080516020612fb9833981519152908390a450506002805460010190555050565b60008261216f858461262c565b14949350505050565b60408051606081018252600080825260208201819052918101919091528160015481101561227957600081815260056020908152604091829020825160608101845290546001600160a01b0381168252600160a01b81046001600160401b031692820192909252600160e01b90910460ff161515918101829052906122775780516001600160a01b03161561220e579392505050565b5060001901600081815260056020908152604091829020825160608101845290546001600160a01b038116808352600160a01b82046001600160401b031693830193909352600160e01b900460ff1615159281019290925215612272579392505050565b61220e565b505b604051636f96cda160e11b815260040160405180910390fd5b600980546001600160a01b038381166001600160a01b0319831681179093556040519116919082907f8be0079c531659141344cd1fd0a4f28419497f9722a3daafe3b4186f6b6457e090600090a35050565b6127106001600160601b03821611156123525760405162461bcd60e51b815260206004820152602a60248201527f455243323938313a20726f79616c7479206665652077696c6c206578636565646044820152692073616c65507269636560b01b60648201526084016108e7565b6001600160a01b0382166123a85760405162461bcd60e51b815260206004820152601960248201527f455243323938313a20696e76616c69642072656365697665720000000000000060448201526064016108e7565b604080518082019091526001600160a01b039092168083526001600160601b039091166020909201829052600160a01b90910217600a55565b604051630a85bd0160e11b81526000906001600160a01b0385169063150b7a0290612416903390899088908890600401612f33565b6020604051808303816000875af1925050508015612451575060408051601f3d908101601f1916820190925261244e91810190612f70565b60015b6124af573d80801561247f576040519150601f19603f3d011682016040523d82523d6000602084013e612484565b606091505b5080516000036124a7576040516368d2bf6b60e11b815260040160405180910390fd5b805181602001fd5b6001600160e01b031916630a85bd0160e11b1490505b949350505050565b6060600d80546107be90612def565b6060816000036125035750506040805180820190915260018152600360fc1b602082015290565b8160005b811561252d578061251781612eeb565b91506125269050600a83612ea9565b9150612507565b6000816001600160401b0381111561254757612547612a18565b6040519080825280601f01601f191660200182016040528015612571576020820181803683370190505b5090505b84156124c557612586600183612f8d565b9150612593600a86612fa4565b61259e906030612ebd565b60f81b8183815181106125b3576125b3612ed5565b60200101906001600160f81b031916908160001a9053506125d5600a86612ea9565b9450612575565b60006001600160e01b031982166380ac58cd60e01b148061260d57506001600160e01b03198216635b5e139f60e01b145b806107a957506301ffc9a760e01b6001600160e01b03198316146107a9565b600081815b84518110156110ff57600085828151811061264e5761264e612ed5565b602002602001015190508083116126745760008381526020829052604090209250612685565b600081815260208490526040902092505b508061269081612eeb565b915050612631565b8280546126a490612def565b90600052602060002090601f0160209004810192826126c6576000855561270c565b82601f106126df5782800160ff1982351617855561270c565b8280016001018555821561270c579182015b8281111561270c5782358255916020019190600101906126f1565b5061271892915061271c565b5090565b5b80821115612718576000815560010161271d565b6001600160e01b0319811681146108fb57600080fd5b60006020828403121561275957600080fd5b813561165e81612731565b60005b8381101561277f578181015183820152602001612767565b83811115610c0d5750506000910152565b600081518084526127a8816020860160208601612764565b601f01601f19169290920160200192915050565b60208152600061165e6020830184612790565b6000602082840312156127e157600080fd5b5035919050565b80356001600160a01b03811681146127ff57600080fd5b919050565b6000806040838503121561281757600080fd5b612820836127e8565b946020939093013593505050565b60008060006060848603121561284357600080fd5b61284c846127e8565b925061285a602085016127e8565b9150604084013590509250925092565b6000806040838503121561287d57600080fd5b50508035926020909101359150565b60008083601f84011261289e57600080fd5b5081356001600160401b038111156128b557600080fd5b6020830191508360208260051b8501011115610acc57600080fd5b6000806000604084860312156128e557600080fd5b83356001600160401b038111156128fb57600080fd5b6129078682870161288c565b909790965060209590950135949350505050565b6000806020838503121561292e57600080fd5b82356001600160401b0381111561294457600080fd5b6129508582860161288c565b90969095509350505050565b6000806020838503121561296f57600080fd5b82356001600160401b038082111561298657600080fd5b818501915085601f83011261299a57600080fd5b8135818111156129a957600080fd5b8660208285010111156129bb57600080fd5b60209290920196919550909350505050565b6000806000604084860312156129e257600080fd5b8335925060208401356001600160401b038111156129ff57600080fd5b612a0b8682870161288c565b9497909650939450505050565b634e487b7160e01b600052604160045260246000fd5b604051601f8201601f191681016001600160401b0381118282101715612a5657612a56612a18565b604052919050565b60006020808385031215612a7157600080fd5b82356001600160401b0380821115612a8857600080fd5b818501915085601f830112612a9c57600080fd5b813581811115612aae57612aae612a18565b8060051b9150612abf848301612a2e565b8181529183018401918481019088841115612ad957600080fd5b938501935b83851015612af757843582529385019390850190612ade565b98975050505050505050565b6020808252825182820181905260009190848201906040850190845b8181101561141357612b5a83855180516001600160a01b031682526020808201516001600160401b0316908301526040908101511515910152565b9284019260609290920191600101612b1f565b60008060408385031215612b8057600080fd5b82359150612b90602084016127e8565b90509250929050565b600060208284031215612bab57600080fd5b61165e826127e8565b6020808252825182820181905260009190848201906040850190845b8181101561141357835183529284019291840191600101612bd0565b634e487b7160e01b600052602160045260246000fd5b6020810160058310612c2457634e487b7160e01b600052602160045260246000fd5b91905290565b60008060408385031215612c3d57600080fd5b612c46836127e8565b915060208301356001600160601b0381168114612c6257600080fd5b809150509250929050565b600080600060608486031215612c8257600080fd5b612c8b846127e8565b95602085013595506040909401359392505050565b60008060408385031215612cb357600080fd5b612cbc836127e8565b915060208301358015158114612c6257600080fd5b60008060008060808587031215612ce757600080fd5b612cf0856127e8565b93506020612cff8187016127e8565b93506040860135925060608601356001600160401b0380821115612d2257600080fd5b818801915088601f830112612d3657600080fd5b813581811115612d4857612d48612a18565b612d5a601f8201601f19168501612a2e565b91508082528984828501011115612d7057600080fd5b808484018584013760008482840101525080935050505092959194509250565b81516001600160a01b031681526020808301516001600160401b031690820152604080830151151590820152606081016107a9565b60008060408385031215612dd857600080fd5b612de1836127e8565b9150612b90602084016127e8565b600181811c90821680612e0357607f821691505b602082108103612e2357634e487b7160e01b600052602260045260246000fd5b50919050565b6020808252818101527f4f776e61626c653a2063616c6c6572206973206e6f7420746865206f776e6572604082015260600190565b634e487b7160e01b600052601160045260246000fd5b6000816000190483118215151615612e8e57612e8e612e5e565b500290565b634e487b7160e01b600052601260045260246000fd5b600082612eb857612eb8612e93565b500490565b60008219821115612ed057612ed0612e5e565b500190565b634e487b7160e01b600052603260045260246000fd5b600060018201612efd57612efd612e5e565b5060010190565b60008351612f16818460208801612764565b835190830190612f2a818360208801612764565b01949350505050565b6001600160a01b0385811682528416602082015260408101839052608060608201819052600090612f6690830184612790565b9695505050505050565b600060208284031215612f8257600080fd5b815161165e81612731565b600082821015612f9f57612f9f612e5e565b500390565b600082612fb357612fb3612e93565b50069056feddf252ad1be2c89b69c2b068fc378daa952ba7f163c4a11628f55a4df523b3efa264697066735822122088dcd4f129b28d32e49bf0d7d86133a260775121883270f7d06198fa432e378964736f6c634300080d0033",
  "immutableReferences": {},
  "source": "// SPDX-License-Identifier: MIT\r\npragma solidity >=0.4.22 <0.9.0;\r\n\r\n// @creator: METACOLLECTIVE aka MXC\r\n// @title: MXC : GENESIS\r\n// @author: @berkozdemir - berk.eth\r\n// @author: @devbhang - devbhang.eth\r\n// @author: @hazelrah_nft - hazelrah.eth\r\n\r\nimport \"erc721a/contracts/extensions/ERC721AQueryable.sol\";\r\nimport \"@openzeppelin/contracts/token/common/ERC2981.sol\";\r\nimport \"@openzeppelin/contracts/access/Ownable.sol\";\r\nimport \"@openzeppelin/contracts/utils/cryptography/MerkleProof.sol\";\r\n\r\n////////////////////////////////////////////////////////////////////////////////////////////////////////////////////////////////////////////////////////\r\n//                                                                                                                                                    //\r\n//                                                                                                                                                    //\r\n////////////////////////////////////////////////////////////////////////////////////////////////////////////////////////////////////////////////////////\r\n\r\ncontract RaffleGraphy is ERC721AQueryable, Ownable, ERC2981 {\r\n\t\r\n\tenum SaleStatus {\r\n\t\tNoSale,\r\n\t\tPrivateSale,\r\n\t\tPreSale,\r\n\t\tPublicSale,\r\n\t\tSaleFinished\r\n\t}\r\n\t\r\n\tSaleStatus saleStatus = SaleStatus.NoSale;\r\n\t\r\n\tstring public baseURI;\r\n\t\r\n\tuint256 public constant MAX_MINT_PRIVATE = 21;\r\n\tuint256 public constant MAX_MINT_PUBLIC = 11;\r\n\t\r\n\tuint256 public price = 0.1 ether;\r\n\t\r\n\tuint256 public maxSupply = 1001;\r\n\t\r\n\taddress public treasuryAddress;\r\n\t\r\n\tbytes32 private _merkleRoot;\r\n\t\r\n\tmapping(address => uint256) private _addressMintCount;\r\n\t\r\n\tconstructor() ERC721A(\"RaffleGraphy\", \"RFLGPHY\") {}\r\n\t\r\n\tfunction addCreators(address[] calldata _creators) external onlyOwner {\r\n\t\trequire(creators.length + _creators.length < MAX_MINT_PRIVATE, \"TOO MANY CREATORS\");\r\n\t\t\r\n\t\tfor (uint i; i < _creators.length; i++) {\r\n\t\t\tcreators.push(_creators[i]);\r\n\t\t}\r\n\t}\r\n\t\r\n\tfunction editCreators(uint _index, address _creator) external onlyOwner {\r\n\t\trequire(_index < creators.length, \"WRONG INDEX\");\r\n\t\t\r\n\t\tcreators[_index] = _creator;\r\n\t}\r\n\t\r\n\tfunction setRoyalty(address _address, uint96 _royalty) external onlyOwner {\r\n\t\ttreasuryAddress = _address;\r\n\t\t_setDefaultRoyalty(_address, _royalty);\r\n\t}\r\n\t\r\n\tfunction setPrice(uint _price) external onlyOwner {\r\n\t\tprice = _price;\r\n\t}\r\n\t\r\n\tfunction editMaxSupply(uint _maxSupply) external onlyOwner {\r\n\t\trequire(_maxSupply < maxSupply, \"MAX SUPPLY CAN'T EXCEED INITIAL SUPPLY\");\r\n\t\t\r\n\t\tmaxSupply = _maxSupply;\r\n\t}\r\n\t\r\n\tfunction setBaseURI(string calldata _newBaseURI) external onlyOwner {\r\n\t\tbaseURI = _newBaseURI;\r\n\t}\r\n\t\r\n\tfunction _baseURI() internal view virtual override returns (string memory) {\r\n\t\treturn baseURI;\r\n\t}\r\n\t\r\n\tfunction supportsInterface(bytes4 interfaceId) public view virtual override(ERC721A, ERC2981) returns (bool) {\r\n\t\treturn super.supportsInterface(interfaceId);\r\n\t}\r\n\t\r\n\tfunction getSaleStatus() public view returns (SaleStatus) {\r\n\t\treturn saleStatus;\r\n\t}\r\n\t\r\n\tfunction setSaleStatus(uint256 _saleStatus, bytes32 _root) external onlyOwner {\r\n\t\tsaleStatus = SaleStatus(_saleStatus);\r\n\t\t_merkleRoot = _root;\r\n\t}\r\n\t\r\n\tfunction _claimToken(uint256 _amount, uint256 _maxMint) internal virtual {\r\n\t\trequire(tx.origin == msg.sender, \"ONLY HUMANS ALLOWED\");\r\n\t\trequire(_addressMintCount[msg.sender] + _amount < _maxMint, \"MAX MINT PER WALLET IS EXCEEDED\");\r\n\t\trequire(totalSupply() + _amount < maxSupply, \"MAX SUPPLY IS EXCEEDED\");\r\n\t\trequire(msg.value >= price * _amount, \"NOT ENOUGH ETHERS SEND\");\r\n\t\t\r\n\t\t_mint(msg.sender, _amount);\r\n\t\t_addressMintCount[msg.sender] += _amount;\r\n\t}\r\n\t\r\n\tfunction claimTokenPrivate(uint256 _amount, bytes32[] calldata _merkleProof) external payable {\r\n\t\trequire(saleStatus == SaleStatus.PrivateSale || saleStatus == SaleStatus.PreSale, \"SALE IS NOT OPEN\");\r\n\t\trequire(MerkleProof.verify(_merkleProof, _merkleRoot, keccak256(abi.encodePacked(msg.sender))), \"ADDRESS NOT WHITELISTED\");\r\n\t\t\r\n\t\tuint256 _maxMint = saleStatus == SaleStatus.PrivateSale ? MAX_MINT_PRIVATE : MAX_MINT_PUBLIC;\r\n\t\t\r\n\t\t_claimToken(_amount, _maxMint);\r\n\t}\r\n\t\r\n\tfunction claimTokenPublic(uint256 _amount) external payable {\r\n\t\trequire(saleStatus == SaleStatus.PublicSale, \"PUBLIC SALE IS NOT OPEN\");\r\n\t\t\r\n\t\t_claimToken(_amount, MAX_MINT_PUBLIC);\r\n\t}\r\n\t\r\n\tfunction mintAdmin(address[] calldata _to, uint _amount) external onlyOwner {\r\n\t\trequire(saleStatus == SaleStatus.SaleFinished, \"CAN'T MINT DURING SALE\");\r\n\t\trequire(totalSupply() + (_amount * _to.length) < maxSupply, \"MAX SUPPLY IS EXCEEDED\");\r\n\t\t\r\n\t\tfor (uint i; i < _to.length; i++) {\r\n\t\t\t_mint(_to[i], _amount);\r\n\t\t}\r\n\t}\r\n\t\r\n\tfunction withdraw() external onlyOwner {\r\n\t\trequire(saleStatus == SaleStatus.SaleFinished, \"CAN'T WITHDRAW DURING SALE\");\r\n\t\trequire(address(this).balance > 0, \"INSUFFICIENT FUNDS\");\r\n\t\t\r\n\t\tpayable(treasuryAddress).transfer(address(this).balance);\r\n\t}\r\n\t\r\n\tfunction burn(uint256 _tokenId) public {\r\n\t\trequire(saleStatus == SaleStatus.SaleFinished, \"CAN'T BURN DURING SALE\");\r\n\t\t\r\n\t\t_burn(_tokenId, true);\r\n\t}\r\n\t\r\n}\r\n",
  "sourcePath": "D:\\Projects\\hagia-contracts\\contracts\\RaffleGraphy.sol",
  "compiler": {
    "name": "solc",
    "version": "0.8.13+commit.abaa5c0e.Emscripten.clang"
  },
  "schemaVersion": "3.4.7",
  "updatedAt": "2022-06-15T21:42:25.738Z",
  "devdoc": {
    "kind": "dev",
    "methods": {
      "approve(address,uint256)": {
        "details": "See {IERC721-approve}."
      },
      "balanceOf(address)": {
        "details": "See {IERC721-balanceOf}."
      },
      "explicitOwnershipOf(uint256)": {
        "details": "Returns the `TokenOwnership` struct at `tokenId` without reverting. If the `tokenId` is out of bounds:   - `addr` = `address(0)`   - `startTimestamp` = `0`   - `burned` = `false` If the `tokenId` is burned:   - `addr` = `<Address of owner before token was burned>`   - `startTimestamp` = `<Timestamp when token was burned>`   - `burned = `true` Otherwise:   - `addr` = `<Address of owner>`   - `startTimestamp` = `<Timestamp of start of ownership>`   - `burned = `false`"
      },
      "explicitOwnershipsOf(uint256[])": {
        "details": "Returns an array of `TokenOwnership` structs at `tokenIds` in order. See {ERC721AQueryable-explicitOwnershipOf}"
      },
      "getApproved(uint256)": {
        "details": "See {IERC721-getApproved}."
      },
      "isApprovedForAll(address,address)": {
        "details": "See {IERC721-isApprovedForAll}."
      },
      "name()": {
        "details": "See {IERC721Metadata-name}."
      },
      "owner()": {
        "details": "Returns the address of the current owner."
      },
      "ownerOf(uint256)": {
        "details": "See {IERC721-ownerOf}."
      },
      "renounceOwnership()": {
        "details": "Leaves the contract without owner. It will not be possible to call `onlyOwner` functions anymore. Can only be called by the current owner. NOTE: Renouncing ownership will leave the contract without an owner, thereby removing any functionality that is only available to the owner."
      },
      "royaltyInfo(uint256,uint256)": {
        "details": "Returns how much royalty is owed and to whom, based on a sale price that may be denominated in any unit of exchange. The royalty amount is denominated and should be paid in that same unit of exchange."
      },
      "safeTransferFrom(address,address,uint256)": {
        "details": "See {IERC721-safeTransferFrom}."
      },
      "safeTransferFrom(address,address,uint256,bytes)": {
        "details": "See {IERC721-safeTransferFrom}."
      },
      "setApprovalForAll(address,bool)": {
        "details": "See {IERC721-setApprovalForAll}."
      },
      "symbol()": {
        "details": "See {IERC721Metadata-symbol}."
      },
      "tokenURI(uint256)": {
        "details": "See {IERC721Metadata-tokenURI}."
      },
      "tokensOfOwner(address)": {
        "details": "Returns an array of token IDs owned by `owner`. This function scans the ownership mapping and is O(totalSupply) in complexity. It is meant to be called off-chain. See {ERC721AQueryable-tokensOfOwnerIn} for splitting the scan into multiple smaller scans if the collection is large enough to cause an out-of-gas error (10K pfp collections should be fine)."
      },
      "tokensOfOwnerIn(address,uint256,uint256)": {
        "details": "Returns an array of token IDs owned by `owner`, in the range [`start`, `stop`) (i.e. `start <= tokenId < stop`). This function allows for tokens to be queried if the collection grows too big for a single call of {ERC721AQueryable-tokensOfOwner}. Requirements: - `start` < `stop`"
      },
      "totalSupply()": {
        "details": "Burned tokens are calculated here, use _totalMinted() if you want to count just minted tokens."
      },
      "transferFrom(address,address,uint256)": {
        "details": "See {IERC721-transferFrom}."
      },
      "transferOwnership(address)": {
        "details": "Transfers ownership of the contract to a new account (`newOwner`). Can only be called by the current owner."
      }
    },
    "version": 1
  },
  "userdoc": {
    "kind": "user",
    "methods": {},
    "version": 1
  }
}